:100000000C94ED000C9415010C9415010C94150141
:100010000C9415010C9415010C9415010C94150108
:100020000C9415010C9415010C94AA050C9454061B
:100030000C9463050C9415010C9415010C94150196
:100040000C94FE030C9415010C94CC030C94A603A1
:100050000C9415010C9415010C9415010C941501C8
:100060000C9448040C941501084AD73B3BCE016E12
:1000700084BCBFFDC12F3D6C74319ABD56833DDAFF
:100080003D00C77F11BED9E4BB4C3E916BAAAABE0E
:10009000000000803F00324400000000000000002B
:1000A0000000000000574159504F494E54000000D5
:1000B0000000000032445F414800000000000000E2
:1000C00000000032445F48480000000000000000CB
:1000D00000004C4F49544552000000000000000051
:1000E0000033440000000000000000000000000099
:1000F00033445F4848000000000000000000005248
:1001000054480000000000000000000000004C41C6
:100110004E44000000000000000000000043415277
:1001200054455349414E00000000000043415254E1
:100130005F4C4F4954455200000000504F4C415213
:1001400000000000000000000000504F4C41525FD2
:100150004C4F4954455200000043454E5445525FB0
:10016000535449434B0000004D414E55414C000053
:10017000000000000000004D415800000000000099
:100180000000000000000000000800020100000361
:10019000040700000000000000000000000025002F
:1001A00028002B0000000000240027002A0004047F
:1001B000040404040404020202020202030303030F
:1001C00003030102040810204080010204081020EB
:1001D000010204081020EA064F1011241FBECFEFC1
:1001E000D8E0DEBFCDBF11E0A0E0B1E0E2EDF7E284
:1001F00002C005900D92A034B107D9F725E0A0E424
:10020000B1E001C01D92A931B207E1F710E0CCEED8
:10021000D0E004C02197FE010E94D613CB3ED10747
:10022000C9F70E943B070C94DC130C940000DF928A
:10023000EF92FF920F931F93CF93DF93C82FD62F88
:10024000D72EF42E8091600490916104DC01ED9131
:10025000FC910190F081E02D64E2099580916004A9
:1002600090916104DC01ED91FC910190F081E02D11
:100270006DE409958091600490916104DC01ED9139
:10028000FC910190F081E02D6EE30995809160046E
:1002900090916104DC01ED91FC910190F081E02DE1
:1002A0006F2D09958091600490916104DC01ED91BE
:1002B000FC910190F081E02D6C2F0995CF25ED2E5A
:1002C0000D2F1D2DF80161918F01C62780916004CB
:1002D00090916104DC01ED91FC910190F081E02DA1
:1002E0000995802F8E198F1568F380916004909185
:1002F0006104DC01ED91FC910190F081E02D6C2F07
:10030000DF91CF911F910F91FF90EF90DF900994B3
:10031000AF92BF92CF92DF92EF92FF920F931F9313
:10032000CF93DF936C017B018B01040F151FEB0151
:100330005E01AE18BF08C017D10759F06991D60108
:10034000ED91FC910190F081E02DC6010995892B7A
:1003500079F7C501DF91CF911F910F91FF90EF9039
:10036000DF90CF90BF90AF900895FC01538D448DE6
:10037000252F30E0842F90E0821B930B541710F050
:10038000CF96089501970895FC01918D828D98175D
:1003900061F0A28DAE0FBF2FB11D5D968C91928D35
:1003A0009F5F9F73928F90E008958FEF9FEF089566
:1003B000FC01918D828D981731F0828DE80FF11D2F
:1003C000858D90E008958FEF9FEF0895FC01918D4A
:1003D000228D892F90E0805C9F4F821B91098F7343
:1003E0009927089586E694E00E94E60121E0892B92
:1003F00009F420E0822F089580E090E0892B29F015
:100400000E94F20181110C9400000895FC01A48D5A
:10041000A80FB92FB11DA35ABF4F2C91848D90E026
:1004200001968F739927848FA689B7892C93A08909
:10043000B1898C91837080648C93938D848D981393
:1004400006C00288F389E02D80818F7D8083089526
:10045000EF92FF920F931F93CF93DF93EC0181E014
:10046000888F9B8D8C8D98131AC0E889F9898081BB
:1004700085FF15C09FB7F894EE89FF896083E889EE
:10048000F98980818370806480839FBF81E090E0E0
:10049000DF91CF911F910F91FF90EF900895F62E6D
:1004A0000B8D10E00F5F1F4F0F731127E02E8C8D07
:1004B0008E110CC00FB607FCFACFE889F98980814C
:1004C00085FFF5CFCE010E940602F1CFEB8DEC0F38
:1004D000FD2FF11DE35AFF4FF0829FB7F8940B8F69
:1004E000EA89FB8980818062CFCFCF93DF93EC01D3
:1004F000888D8823B9F0AA89BB89E889F9898C910C
:1005000085FD03C0808186FD0DC00FB607FCF7CFC7
:100510008C9185FFF2CF808185FFEDCFCE010E94C7
:100520000602E9CFDF91CF91089585ED8093BC005D
:100530008091BC0084FDFCCF10921F020895209191
:10054000FB01260F3327331F21323105ECF42091B4
:100550001F02FC0190E080E0243069F082E0089501
:10056000A091FB012191AC0145525E4FA40FB52F24
:10057000B11D2C930196861798F38091FB01680FAB
:100580006093FB0180E0089581E0089508958FEF66
:100590009FEF08958FEF9FEF08958091DA0190E02B
:1005A0009195819591090895CF93DF93CB01EA014D
:1005B000642F0E949F02CE01DF91CF910895CF93C7
:1005C000DF931F92CDB7DEB7698361E0CE0101965C
:1005D0000E949F0281E090E00F90DF91CF910895FB
:1005E00090E080E0089550914B0240914A02842FA0
:1005F00090E0252F30E0541718F4821B930B0895D8
:100600008C5B9F4FFACF50914E0240914D02852F47
:1006100090E0242F30E0541718F0821B930B0895BC
:10062000805B9F4FFACF80914E02E0914D028E1772
:1006300051F0EF5FE03508F0E0E0F0E0E657FE4F04
:10064000808190E008958FEF9FEF089580914E0292
:1006500090914D02891769F09F5F903508F090E006
:10066000E92FF0E0E657FE4F808190934D0290E035
:1006700008958FEF9FEF089580914C028111FCCF78
:10068000089580914B028F5F843408F080E0909150
:100690004A029817E1F32FB7F89490914C029923EE
:1006A00059F0E82FF0E0E05CFE4F608380934B024E
:1006B0002FBF81E090E0089581E080934C02609329
:1006C00085011092840182E086BB80916F00826078
:1006D00080936F00809180008F7B80688093800082
:1006E000809184009091850040969093890080933A
:1006F0008800DECFCF93DF93CDB7DEB72F970FB64D
:10070000F894DEBF0FBECDBF809113059091140504
:100710002FE0289FB001299F700D11246A567F4F4A
:10072000CE0101960E946D108FE0FE013196A6E089
:10073000B1E001900D928A95E1F72F960FB6F894EB
:10074000DEBF0FBECDBFDF91CF9108951F920F92F4
:100750000FB60F9211242F933F934F935F936F9394
:100760007F938F939F93AF93BF93EF93FF9386E60F
:1007700094E00E940602FF91EF91BF91AF919F918B
:100780008F917F916F915F914F913F912F910F903A
:100790000FBE0F901F9018951F920F920FB60F92D9
:1007A00011242F938F939F93EF93FF93E0917604FF
:1007B000F09177048081E0917C04F0917D0482FDCA
:1007C0001BC0908180917F048F5F8F732091800484
:1007D000821741F0E0917F04F0E0EA59FB4F958FDA
:1007E00080937F04FF91EF919F918F912F910F90B4
:1007F0000FBE0F901F9018958081F4CF1F920F921B
:100800000FB60F9211242F933F938F939F93AF9323
:10081000BF938091BD029091BE02A091BF02B091A2
:10082000C0023091490223E0230F2D3758F501967D
:10083000A11DB11D209349028093BD029093BE0279
:10084000A093BF02B093C0028091450290914602EE
:10085000A0914702B09148020196A11DB11D80935D
:10086000450290934602A0934702B0934802BF917D
:10087000AF919F918F913F912F910F900FBE0F904D
:100880001F90189526E8230F0296A11DB11DD2CF07
:100890001F920F920FB60F9211242F933F934F93F5
:1008A0005F936F937F938F939F93AF93BF93EF93D8
:1008B000FF938091B900887F803609F44AC0F0F533
:1008C000883209F4A5C018F5803109F499C0B8F44C
:1008D000882309F4F5C0883009F492C0FF91EF91A4
:1008E000BF91AF919F918F917F916F915F914F9148
:1008F0003F912F910F900FBE0F901F901895883148
:1009000009F486C0803251F780931E0214C08034EF
:1009100009F49BC040F48033B9F38833F9F680932F
:100920001E0285ECAEC0803509F483C0883509F419
:1009300094C0883499F60E949502D0CF883909F482
:100940008AC038F5883729F050F4883611F080379E
:1009500029F683E080931F0210921D0255C088384B
:1009600009F479C0803919F0803809F0B7CF809147
:100970001D02803208F06FC0E0911D0281E08E0FF1
:1009800080931D028091BB00F0E0E350FE4F808316
:100990003BC0803B39F0D0F4803A09F477C0883A04
:1009A00009F09CCF84E080931F021092FC0110920A
:1009B000FB01F0E0E0E009958091FB0181110FC09F
:1009C00081E08093FB011092DB0109C0803C09F4B7
:1009D000A8CF883C09F4A5CF883B09F07FCFE091F0
:1009E000FC0181E08E0F8093FC01F0E0E552FE4FA8
:1009F00080818093BB009091FC018091FB0129C014
:100A0000809144028093BB0085EC8093BC0066CF4C
:100A10009091430280914202981758F5E091430269
:100A200081E08E0F80934302F0E0EE5DFD4F808108
:100A3000E9CFE091430281E08E0F809343028091E1
:100A4000BB00F0E0EE5DFD4F80839091430280910A
:100A500042029817C8F285E8D8CFE091430281E0BE
:100A60008E0F809343028091BB00F0E0EE5DFD4F5E
:100A700080838091210281115ECF81E080932002EA
:100A800084EA8093BC0010921F0228CF85EC8093EB
:100A9000BC0010921F0280911D02803230F4E09160
:100AA0001D02F0E0E350FE4F108260911D0270E0E5
:100AB0008DEF91E0F0E0E0E0099510921D020ECF7D
:100AC00010921E0238CF1F920F920FB60F92112470
:100AD0002F938F939F93EF93FF9380916F008B7F62
:100AE00080936F00809181008F7B80938100809143
:100AF0004F0220918901205890918801893020F47B
:100B00009695922B8F5FFACF9093880180914E0239
:100B10008F5F803508F080E020914D02281739F072
:100B2000E82FF0E0E657FE4F908380934E0210923C
:100B30004F02809181008F7B809381001092890108
:100B4000FF91EF919F918F912F910F900FBE0F907A
:100B50001F9018951F920F920FB60F9211242F938A
:100B60003F934F935F936F937F938F939F93AF9335
:100B7000BF93EF93FF9380918600909187004091FF
:100B80008901209181004423F1F12F7B2093810082
:100B90001092890130914F0231113CC0411122C0A5
:100BA0002091500230915102280F391F30938B0051
:100BB00020938A0024E026BB20916F0024602093BC
:100BC0006F002091520230915302820F931F36958D
:100BD0002795280F391F309387012093860181E0E4
:100BE00080934F02FF91EF91BF91AF919F918F91B1
:100BF0007F916F915F914F913F912F910F900FBE19
:100C00000F901F90189520642093810020E8209376
:100C10008901C0CF409186015091870160915202B5
:100C200070915302DB01A095B095E091890120916C
:100C30008801841B950BA817B90768F126952E2B00
:100C4000460F571F3F5F861B970B3930A0F3209349
:100C5000880180916F008B7F80936F0080914E029E
:100C60008F5F803508F080E090914D02981749F031
:100C7000E82FF0E090918801E657FE4F9083809333
:100C80004E02809181008F7B8093810010928901B8
:100C900010924F02A7CF2093880150938701409371
:100CA000860130934F029ECF1F920F920FB60F9284
:100CB00011242F933F934F935F936F937F938F9361
:100CC0009F93EF93FF9320914C0260918501809157
:100CD00088009091890040915202509153023091C6
:100CE00084012A3070F5840F951F762F717029309A
:100CF00009F471E066952F5F371799F33091800002
:100D00007723E1F0306C30938000909389008093DA
:100D10008800709384016093850120934C02FF91B9
:100D2000EF919F918F917F916F915F914F913F9143
:100D30002F910F900FBE0F901F9018953F7B30683A
:100D4000E2CF30914B02E0914A023E1319C02A30A3
:100D500051F42BE020934C02840F951F909389004F
:100D600080938800DCCF10924C02809180008F73BA
:100D70008093800080916F008D7F80936F00CFCF34
:100D8000EF5FE43408F0E0E0E0934A02F0E0E05C7A
:100D9000FE4F3081309385011092840130918000A4
:100DA0003F7B3068309380002A3071F420915202EA
:100DB00030915302820F931F909389008093880093
:100DC00081E080934C02ABCF8091840090918500AC
:100DD0004096F2CFE6E6F4E01382128288EE93E0CA
:100DE000A0E0B0E084839583A683B78320E231E05E
:100DF0003183208325EC30E03587248724EC30E0F4
:100E00003787268720EC30E0318B208B21EC30E0D7
:100E1000338B228B22EC30E0358B248B26EC30E0B8
:100E2000378B268B118E128E138E148EE3E0F5E035
:100E30001382128284839583A683B78382E391E031
:100E40009183808380911A0190911B0190931805E2
:100E5000809317058091130590911405A0911505B5
:100E6000B091160580930F0590931005A09311057E
:100E7000B09312050895CF93DF9300D000D0CDB783
:100E8000DEB7789484B5826084BD84B5816084BD0A
:100E900085B5826085BD85B5816085BD80916E0018
:100EA000816080936E001092810080918100826049
:100EB0008093810080918100816080938100809186
:100EC00080008160809380008091B1008460809375
:100ED000B1008091B00081608093B00080917A0071
:100EE000846080937A0080917A00826080937A0097
:100EF00080917A00816080937A0080917A00806886
:100F000080937A001092C10010926F0010928000BE
:100F100081E88093810086E191E090935302809371
:100F200052028BE09AE09093510280935002EAECD7
:100F3000F1E02491E6EBF1E084918823D9F090E090
:100F4000880F991FFC01EC55FE4FC590D490DA82B2
:100F5000C982FC01E656FE4FA591B4919FB7F89463
:100F6000F6013081822F809583238083EC91E22BE0
:100F7000EC939FBFEFE8F1E024914BEC51E0FA01D4
:100F8000349187EB91E0FC0164916623D9F0222330
:100F900059F0233009F490C208F083C2213009F4DB
:100FA00091C2223009F492C2E62FF0E0EE0FFF1F4B
:100FB000E656FE4FA591B4912FB7F8946C91362B5D
:100FC0003C932FBFFA014491FC018491882399F04E
:100FD00090E0880F991FFC01EC55FE4FA591B4914C
:100FE000FC01E656FE4F859194918FB7F8949C9141
:100FF000492B4C938FBF10924F0210924E021092C9
:101000004D0210924C0210924B0210924A0280E262
:1010100086BB80936F001092BC02109258022FB7CB
:10102000F8948091BD029091BE02A091BF02B09150
:10103000C0022FBF8093540290935502A093560292
:10104000B0935702E1ECF2E081E6DF011D928A9550
:10105000E9F7E0917604F091770482E08083E091F3
:101060007204F09173041082E0917404F09175049D
:1010700080E1808310927E04E0917A04F0917B04F9
:1010800086E08083E0917804F0917904808180612A
:101090008083E0917804F091790480818860808376
:1010A000E0917804F0917904808180688083E091F8
:1010B0007804F091790480818F7D808386E694E0C6
:1010C000909361048093600484EF91E0A0E0B0E02D
:1010D0008093620490936304A0936404B0936504C6
:1010E00080E890E090931B0480931A0410921D04F2
:1010F00010921C0483E290E090931F0480931E04DE
:101100001092240487E090E09093260480932504B5
:101110001092290484E180932A0410922B041092E7
:101120002C0410922D0410922E0482E090E0A0E096
:10113000B0E08093020190930301A0930401B09367
:101140000501F4E64F2E512C612C712CE0E52E2E7A
:10115000E4E13E2E83E095E00E940303892B09F42D
:10116000DAC183E095E00E9426039091BC029130A1
:1011700009F4C5C108F4B7C1923009F4C4C1933071
:1011800009F4C5C1E92FF0E0E75AFD4F80839F3590
:10119000D0F46091BA022091BB028227282F2295B9
:1011A000122F082F02279801207F3F70A901440FBA
:1011B000551F3427032F08272627122F1527109392
:1011C000BB020093BA029F5F9093BC02913610F26B
:1011D0002091B8023091B9028091BA029091BB027D
:1011E0002817390709F081C181E6E9E5F2E0A1ECB1
:1011F000B2E001900D928A95E1F76091C102709181
:10120000C2028091C3029091C4020E94CF136093E6
:10121000C1027093C2028093C3029093C402609192
:10122000C9027091CA028091CB029091CC020E94B7
:10123000CF136093C9027093CA028093CB0290933C
:10124000CC028091CD029091CE02982789279827D1
:101250009093CE028093CD028091CF029091D002E4
:101260009827892798279093D0028093CF02809166
:10127000D1029091D2029827892798279093D20281
:101280008093D1028091D3029091D402982789272C
:1012900098279093D4028093D3028091D5029091A5
:1012A000D6029827892798279093D6028093D50253
:1012B0008091D7029091D8029827892798279093F8
:1012C000D8028093D7028091D9029091DA029827B0
:1012D000892798279093DA028093D9028091DB02C4
:1012E0009091DC029827892798279093DC028093BD
:1012F000DB028091DD029091DE02982789279827F2
:101300009093DE028093DD028091DF029091E002F3
:101310009827892798279093E0028093DF02809195
:10132000E1029091E2029827892798279093E202A0
:101330008093E1028091E3029091E402982789274B
:1013400098279093E4028093E3028091E5029091C4
:10135000E6029827892798279093E6028093E50272
:101360008091E7029091E802982789279827909327
:10137000E8028093E7028091E9029091EA029827BF
:10138000892798279093EA028093E9028091EB02E3
:101390009091EC029827892798279093EC028093EC
:1013A000EB028091ED029091EE0298278927982711
:1013B0009093EE028093ED026091F1027091F2023F
:1013C0008091F3029091F4020E94CF136093F10296
:1013D0007093F2028093F3029093F4026091F5020D
:1013E0007091F6028091F7029091F8020E94CF135B
:1013F0006093F5027093F6028093F7029093F802DF
:101400006091F9027091FA028091FB029091FC02C6
:101410000E94CF136093F9027093FA028093FB024B
:101420009093FC028091FD029091FE0298278927FB
:1014300098279093FE028093FD028091FF02909185
:101440000003982789279827909300038093FF0231
:101450006091010370910203809103039091040352
:101460000E94CF13609301037093020380930303E0
:1014700090930403F1E0F09358022FB7F894809111
:10148000BD029091BE02A091BF02B091C0022FBFD9
:101490008093540290935502A0935602B093570242
:1014A00024C02730B1F02830D1F0243009F07CCDB1
:1014B000209180002F7D03C0209180002F77209302
:1014C000800072CD24B52F7724BD6ECD24B52F7D3D
:1014D000FBCF2091B0002F772093B00065CD2091F5
:1014E000B0002F7DF9CF803B19F01092BC0232CEB4
:1014F000EFEFFFEFF093BB02E093BA0243CE8E31E1
:1015000009F440CEF2CF8E3D09F43CCEEECF8D3AB9
:1015100009F438CEEACF809158028823F1F02FB732
:10152000F8948091BD029091BE02A091BF02B0914B
:10153000C0022FBF40915402509155026091560253
:1015400070915702841B950BA60BB70B893B9B40F0
:10155000A105B10510F0109258022FB7F8948091B0
:10156000BD029091BE02A091BF02B091C0022FBFF8
:1015700040915C0450915D0460915E0470915F0441
:101580006C017D01C41AD50AE60AF70AB701A60163
:10159000443651056105710508F4FBC380935C0472
:1015A00090935D04A0935E04B0935F04C0904804E0
:1015B000D0904904E0904A04F0904B04C114D10447
:1015C000E104F10409F49AC4809144049091450423
:1015D000A0914604B09147040097A105B10509F414
:1015E0008DC480904D0490904E04A0904F04B09014
:1015F0005004BC01CD01681979098A099B090E9430
:101600007B102091150130911601409117015091E6
:1016100018010E94DA104B015C01809151049091F5
:101620005204A0915304B0915404A7019601281BC1
:10163000390B4A0B5B0BCA01B9010E947B10905811
:10164000A50194010E94681220EA3CE043EB55E4B6
:101650000E94DA1020E030EA4CE056E40E94E911E2
:101660000E94391397FF04C0605673478F4F9F4FF6
:10167000A30192010E9498113093E2032093E103A9
:101680008091DF029091E0026AE070E00E94A7136F
:10169000609356048091E7023AE0839FC0011124D1
:1016A0009093300480932F048091EB029091EC0290
:1016B0009093100480930F046091FD027091FE02DC
:1016C00090E080E00E94791021EC3AEC41E350E494
:1016D0000E94DA100E9440137093ED036093EC03B4
:1016E0008091ED029091EE029093E0038093DF03EE
:1016F0008091D3029091D4029093DE038093DD0316
:101700008091D5029091D6029093D6038093D50311
:101710008091CF029091D00264E670E00E94BB13EA
:10172000072E000C880B990B0E947B106093C70357
:101730007093C8038093C9039093CA038091C90230
:101740009091CA02A091CB02B091CC028093EE039B
:101750009093EF03A093F003B093F1038091F10213
:101760009091F202A091F302B091F402809351049F
:1017700090935204A0935304B0935404C090F50284
:10178000D090F602E090F702F090F802C0924D047B
:10179000D0924E04E0924F04F092500480910103E5
:1017A00090910203A0910303B0910403809340043D
:1017B00090934104A0934204B09343046091F902D2
:1017C0007091FA028091FB029091FC022AE030E0D5
:1017D00040E050E00E94B7112093E8033093E90302
:1017E0004093EA035093EB03CD28CE28CF2809F489
:1017F0008AC38091060380934C0480914C0484300A
:1018000030F0863008F083C382E0809355048091E5
:10181000070390E0B0E0A0E08093130590931405D7
:10182000A0931505B09316052091EF0230E0AFEFBD
:10183000B3E00E94D911A30192010E949811309344
:10184000120420931104C0901901C98260915804B8
:101850007091590480915A0490915B0424E833E01C
:1018600040E050E00E94B711672B682B692B09F00C
:1018700050C32C2D213009F04CC380911705909155
:101880001805813D974080F080911A0190911B01CD
:10189000209100013091010130931B0120931A0126
:1018A00090930101809300018FE0E6E0F1E0A1E375
:1018B000B4E001900D928A95E1F74FE061E374E0A6
:1018C0008AE00E9417018091020190910301A0918A
:1018D0000401B09105010297A105B10599F4809129
:1018E0002F04909130048D32914064F083E090E0B9
:1018F000A0E0B0E08093020190930301A093040163
:10190000B09305018091020190910301A09104011F
:10191000B09105018093200490932104A0932204A8
:10192000B0932304A3E0B3E0B0932804A09327046A
:1019300045E16AE174E086E90E94170110922804EB
:101940001092270445E16AE174E085E60E941701E0
:101950008091560480931304809111049091120495
:10196000909317048093160480912F049091300473
:10197000909319048093180480910F04909110049F
:10198000909315048093140447E063E174E08EE6BD
:101990000E94170180912F049091300490930B04C2
:1019A00080930A0420915604BAE02B9FC0011124B1
:1019B00090930E0480930D0480910F049091100475
:1019C0009093090480930804809157048093040441
:1019D000309206042092050410920C042093070410
:1019E0004BE064E074E082E80E94170180915104AA
:1019F00090915204A0915304B09154048093F40345
:101A00009093F503A093F603B093F70380914D04F0
:101A100090914E04A0914F04B09150048093F8032C
:101A20009093F903A093FA03B093FB0380914C04C5
:101A30008093F3038091EE039091EF039093FD0365
:101A40008093FC038091EC039091ED039093FF034E
:101A50008093FE0342E162EF73E08AE60E94170181
:101A60008091E8039091E9039093E4038093E3036A
:101A70008091E1039091E2032091DF033091E00334
:101A8000821B930B9093E6038093E50345E063EE9E
:101A900073E08BE60E9417012091DD033091DE0395
:101AA000EAE0E29FC001E39F900D11249093DA03D6
:101AB0008093D9032091D5033091D603E29FC001D2
:101AC000E39F900D11249093D8038093D70346E0B1
:101AD00067ED73E08CE60E9417018091EE03909110
:101AE000EF03A091F003B091F1038093CB039093A7
:101AF000CC03A093CD03B093CE036091C703709144
:101B0000C8038091C9039091CA030E94391370934E
:101B1000D0036093CF034AE06BEC73E08DE60E9444
:101B200017011092240388E38093290388E18093AE
:101B30009E0382E090E09093B8038093B70380E126
:101B40008093BF03F1E0F093C403F093C5031092B8
:101B5000C60380E098E090932D0380932C0389E1E5
:101B600098E090932F0380932E038AEE90E0909359
:101B70003103809330039093330380933203909327
:101B80003503809334039093370380933603909307
:101B900039038093380390933B0380933A0320E604
:101BA00038E030933D0320933C0390933F038093B0
:101BB0003E03909341038093400327E338E0309342
:101BC0004303209342032AE538E0309345032093F2
:101BD000440321EE38E030934703209346032091DD
:101BE0001A0130911B01309349032093480328EFD9
:101BF00038E030934B0320934A0390934D03809336
:101C00004C0390934F0380934E0390935103809322
:101C10005003909353038093520390935503809302
:101C200054039093570380935603909359038093E2
:101C3000580323E939E030935B0320935A0323E7E9
:101C400039E030935D0320935C0390935F038093AE
:101C50005E032AEE39E030936103209360032EEE99
:101C600039E030936303209362039093650380937C
:101C7000640390936703809366032EE038E030930B
:101C80006903209368032FE038E030936B032093BF
:101C90006A0390936D0380936C032AE139E03093DB
:101CA0006F0320936E03909371038093700390935E
:101CB00073038093720390937503809374039093DE
:101CC00077038093760390937903809378039093BE
:101CD0007B0380937A0390937D0380937C0390939E
:101CE0007F0380937E03909381038093800390937E
:101CF000830380938203909385038093840390935E
:101D0000870380938603909389038093880390933D
:101D10008B0380938A0390938D0380938C0390931D
:101D20008F0380938E0390939103809390039093FD
:101D300093038093920390939503809394039093DD
:101D400097038093960390939903809398039093BD
:101D50009B0380939A0390939D0380939C0345EA91
:101D600062E273E084E50E9417018091580490912B
:101D70005904A0915A04B0915B048C599F4FAF4F06
:101D8000BF4F8093580490935904A0935A04B09382
:101D90005B048091130590911405A0911505B091F5
:101DA000160540910F055091100560911105709135
:101DB000120584179507A607B70751F080930F0502
:101DC00090931005A0931105B09312050E947A0319
:101DD0008091570481110BC080915604882339F0FB
:101DE0008B3208F0A2C0CC24C394C09257046091F7
:101DF00058047091590480915A0490915B0420E139
:101E000037E240E050E00E94B711672B682B692B46
:101E100011F40E947A0380915504833008F415C1AF
:101E200080911901813009F010C1609151047091C5
:101E300052048091530490915404611571058105F9
:101E4000910509F402C1C0904D04D0904E04E09079
:101E50004F04F0905004C114D104E104F10409F4DA
:101E6000F4C020914C04263008F4EFC0609348047D
:101E70007093490480934A0490934B04C0924404A5
:101E8000D0924504E0924604F09247040E947B10F1
:101E90009F7720E836E948E15BE40E94C71225E31A
:101EA0003AEF4EE85CE30E94DA102BED3FE049EC9C
:101EB0005FE30E94E9116B017C010E943913605EAF
:101EC0007F4F8F4F9F4F613471058105910508F059
:101ED000E2C02BED3FE049E450E4C701B6010E94A7
:101EE00096131816CCF52BED3FE049EC50E4C701F2
:101EF000B6010E94E8116B017C01EBCF1092E20366
:101F00001092E103BDCB41E040934C0476CC83E0DA
:101F10007CCCC980C110C8CC809117059091180560
:101F200090931B0180931A01BFCC853520F482E089
:101F3000809357045CCF8F3710F483E0F9CF893A50
:101F400010F484E0F5CF833D10F485E0F1CF8F3FAE
:101F500009F44DCF86E0ECCF2BED3FE049E450ECA7
:101F6000C701B6010E94741087FF0BC02BED3FE044
:101F700049EC50E4C701B6010E94E9116B017C01F4
:101F8000EBCF2BED3FE049EC5FE3C701B6010E94C8
:101F9000961318160CF066C02BED3FE049EC5FE39A
:101FA000C701B6010E94E8119B01AC016BED7FE017
:101FB00089EC9FE30E94E8116B017C01A701960167
:101FC000C701B6010E94DA104B015C0120E030E04D
:101FD000A9010E94DA1022E937EE41E459E30E9498
:101FE000E811A50194010E94DA1027E930E348E0E6
:101FF0005CE30E94E911A50194010E94DA1025E139
:1020000038EA4AE25EE30E94E81169837A838B83AF
:102010009C83A5019401C701B6010E94DA109B01BF
:10202000AC0169817A818B819C810E94DA10A701C1
:1020300096010E94E9116093150170931601809337
:102040001701909318011092190180E090E0892BFC
:1020500009F480C80E94F201882309F477C80E941D
:10206000000074C82BED3FE049EC5FEBC701B601FF
:102070000E94741087FFA2CF2BED3FE049EC5FE395
:10208000C701B6010E94E9119B01AC016BED7FE035
:1020900089EC9FEB8FCF60E070E0CB01CCCF82E387
:1020A00091E0909304058093030580916F008B7FEE
:1020B00080936F0080916F008F7D80936F0080917F
:1020C0004D0280934E0280914C028111FCCF809191
:1020D0006F008D7F80936F000895FB01DC010590F8
:1020E0000D920020E1F708950E94B61008F481E0F7
:1020F0000895E89409C097FB3EF4909580957095FB
:1021000061957F4F8F4F9F4F9923A9F0F92F96E943
:10211000BB279395F695879577956795B795F111B8
:10212000F8CFFAF4BB0F11F460FF1BC06F5F7F4F55
:102130008F4F9F4F16C0882311F096E911C0772367
:1021400021F09EE8872F762F05C0662371F096E870
:10215000862F70E060E02AF09A95660F771F881F3F
:10216000DAF7880F9695879597F90895990F0008E3
:10217000550FAA0BE0E8FEEF16161706E807F90759
:10218000C0F012161306E407F50798F0621B730BF4
:10219000840B950B39F40A2661F0232B242B252B75
:1021A00021F408950A2609F4A140A6958FEF811D18
:1021B000811D08950E94ED100C945E110E94501133
:1021C00038F00E94571120F0952311F00C9447111C
:1021D0000C944D1111240C9492110E946F1170F304
:1021E000959FC1F3950F50E0551F629FF001729FBC
:1021F000BB27F00DB11D639FAA27F00DB11DAA1FCB
:10220000649F6627B00DA11D661F829F2227B00D17
:10221000A11D621F739FB00DA11D621F839FA00DA2
:10222000611D221F749F3327A00D611D231F849FF2
:10223000600D211D822F762F6A2F11249F57504049
:102240009AF0F1F088234AF0EE0FFF1FBB1F661FC4
:10225000771F881F91505040A9F79E3F510580F08D
:102260000C9447110C9492115F3FE4F3983ED4F321
:10227000869577956795B795F795E7959F5FC1F731
:10228000FE2B880F911D9695879597F9089597F9DC
:102290009F6780E870E060E008959FEF80EC08950C
:1022A00000240A9416161706180609060895002435
:1022B0000A9412161306140605060895092E0394AF
:1022C000000C11F4882352F0BB0F40F4BF2B11F423
:1022D00060FF04C06F5F7F4F8F4F9F4F089557FD82
:1022E0009058440F551F59F05F3F71F04795880F84
:1022F00097FB991F61F09F3F79F08795089512161B
:1023000013061406551FF2CF4695F1DF08C01616C6
:1023100017061806991FF1CF869571056105089477
:102320000895E894BB2766277727CB0197F908958E
:10233000052E97FB1EF400940E94AF1157FD07D0A5
:102340000E94B71107FC03D04EF40C94AF115095C6
:102350004095309521953F4F4F4F5F4F0895909591
:102360008095709561957F4F8F4F9F4F0895A1E2A3
:102370001A2EAA1BBB1BFD010DC0AA1FBB1FEE1FFF
:10238000FF1FA217B307E407F50720F0A21BB30B4A
:10239000E40BF50B661F771F881F991F1A9469F7C6
:1023A00060957095809590959B01AC01BD01CF0122
:1023B0000895A29FB001B39FC001A39F700D811D1E
:1023C0001124911DB29F700D811D1124911D08953E
:1023D0005058BB27AA270E9400120C945E110E943D
:1023E000501138F00E94571120F039F49F3F19F432
:1023F00026F40C944D110EF4E095E7FB0C94471174
:10240000E92F0E946F1158F3BA1762077307840708
:10241000950720F079F4A6F50C9491110EF4E0954F
:102420000B2EBA2FA02D0B01B90190010C01CA018E
:10243000A0011124FF27591B99F0593F50F4503E39
:1024400068F11A16F040A22F232F342F4427585F2B
:10245000F3CF469537952795A795F0405395C9F743
:102460007EF41F16BA0B620B730B840BBAF09150FB
:10247000A1F0FF0FBB1F661F771F881FC2F70EC09A
:10248000BA0F621F731F841F48F48795779567956D
:10249000B795F7959E3F08F0B0CF9395880F08F059
:1024A0009927EE0F9795879508950E94501160F037
:1024B00080E891E009F49EEF0E94571128F040E86F
:1024C00051E071F45EEF0CC00C944D110C9491111D
:1024D000E92FE0780E946F1140F3092E052AB1F32D
:1024E000261737074807590738F00E2E07F8E0255A
:1024F00069F0E025E0640AC0EF6307F8009407FA8A
:10250000DB01B9019D01DC01CA01AD01EF930E941D
:10251000DE120E945E110E9498125F91552339F0DD
:102520002BED3FE049E450FD49EC0C94E91108958E
:10253000DF93DD27B92FBF7740E85FE31616170654
:1025400048075B0718F4D92F0E949B139F938F9322
:102550007F936F930E94A313E8E6F0E00E946F134D
:102560000E945E112F913F914F915F910E94ED105B
:10257000DD2351F09058A2EA2AED3FE049EC5FE3F9
:10258000D0785D270E940012DF910C945E110E94AA
:10259000DB120C945E110E94571158F00E945011EA
:1025A00040F029F45F3F29F00C94471151110C942D
:1025B00092110C944D110E946F1168F39923B1F39D
:1025C000552391F3951B550BBB27AA276217730759
:1025D000840738F09F5F5F4F220F331F441FAA1FED
:1025E000A9F335D00E2E3AF0E0E832D091505040A9
:1025F000E695001CCAF72BD0FE2F29D0660F771F57
:10260000881FBB1F261737074807AB07B0E809F03C
:10261000BB0B802DBF01FF2793585F4F3AF09E3FC1
:10262000510578F00C9447110C9492115F3FE4F33C
:10263000983ED4F3869577956795B795F7959F5F04
:10264000C9F7880F911D9695879597F90895E1E050
:10265000660F771F881FBB1F621773078407BA07AF
:1026600020F0621B730B840BBA0BEE1F88F7E0950A
:1026700008950E9440136894B1110C94921108952A
:102680000E94771188F09F5798F0B92F9927B7517A
:10269000B0F0E1F0660F771F881F991F1AF0BA9506
:1026A000C9F714C0B13091F00E949111B1E00895C2
:1026B0000C949111672F782F8827B85F39F0B93FB4
:1026C000CCF3869577956795B395D9F73EF49095B9
:1026D0008095709561957F4F8F4F9F4F0895DF9341
:1026E000CF931F930F93FF92EF92DF927B018C01A8
:1026F000689406C0DA2EEF010E94ED10FE01E89406
:10270000A5912591359145915591A6F3EF010E9430
:102710000012FE019701A801DA9469F7DF90EF90AB
:10272000FF900F911F91CF91DF9108950E94B610F5
:1027300008F48FEF08959B01AC0160E070E080E841
:102740009FE30C94C7129B01AC010C94DA10AA1BF6
:10275000BB1B51E107C0AA1FBB1FA617B70710F08C
:10276000A61BB70B881F991F5A95A9F780959095BE
:10277000BC01CD01089597FB072E16F4009407D0F5
:1027800077FD09D00E94A71307FC05D03EF4909571
:1027900081959F4F0895709561957F4F08956927A2
:1027A000962769277827872778270895EE0FFF1F38
:1027B0000590F491E02D099410E0CCEED0E004C037
:1027C000FE010E94D6132196CD3ED107C9F7F89499
:0227D000FFCF39
:1027D200EA0002000000444A49414952554E495418
:1027E20000000000000000803F01200800000000FF
:1027F20028028801B5017502E601C401D801000072
:10280200000041038801F3023C0303032603130380
:00000001FF
