:100000000C94ED000C9415010C9415010C94150141
:100010000C9415010C9415010C9415010C94150108
:100020000C9415010C9415010C9448040C94F204E2
:100030000C9401040C9415010C9415010C941501F9
:100040000C94B7030C9415010C9485030C945F0376
:100050000C9415010C9415010C9415010C941501C8
:100060000C9415010C941501084AD73B3BCE016E48
:1000700084BCBFFDC12F3D6C74319ABD56833DDAFF
:100080003D00C77F11BED9E4BB4C3E916BAAAABE0E
:10009000000000803F00324400000000000000002B
:1000A0000000000000574159504F494E54000000D5
:1000B0000000000032445F414C545F484F4C440004
:1000C00000000032445F48480000000000000000CB
:1000D00000004C4F49544552000000000000000051
:1000E0000033440000000000000000000000000099
:1000F00033445F4848000000000000000000005248
:1001000054480000000000000000000000004C41C6
:100110004E44000000000000000000000043415277
:1001200054455349414E00000000000043415254E1
:100130005F4C4F4954455200000000504F4C415213
:1001400000000000000000000000504F4C41525FD2
:100150004C4F4954455200000043454E5445525FB0
:10016000535449434B0000004D414E55414C000053
:10017000000000000000004D415800000000000099
:100180000000000000000000000800020100000361
:10019000040700000000000000000000000025002F
:1001A00028002B0000000000240027002A0004047F
:1001B000040404040404020202020202030303030F
:1001C00003030102040810204080010204081020EB
:1001D000010204081020AA05A00511241FBECFEFBC
:1001E000D8E0DEBFCDBF11E0A0E0B1E0EAE3F6E287
:1001F00002C005900D92A235B107D9F724E0A2E51F
:10020000B1E001C01D92A03CB207E1F710E0CCEED6
:10021000D0E004C02197FE010E940A13CB3ED10713
:10022000C9F70E94FB050C9410130C940000DF9298
:10023000EF92FF920F931F93CF93DF93C82FD62F88
:10024000D72EF42E8091070490910804DC01ED91E3
:10025000FC910190F081E02D64E209958091070402
:1002600090910804DC01ED91FC910190F081E02D6A
:100270006DE409958091070490910804DC01ED91EB
:10028000FC910190F081E02D6CE3099580910704C9
:1002900090910804DC01ED91FC910190F081E02D3A
:1002A0006F2D09958091070490910804DC01ED9170
:1002B000FC910190F081E02D6C2F0995CF25ED2E5A
:1002C0000D2F1D2DF80161918F01C6278091070424
:1002D00090910804DC01ED91FC910190F081E02DFA
:1002E0000995802F8E198F1568F3809107049091DE
:1002F0000804DC01ED91FC910190F081E02D6C2F60
:10030000DF91CF911F910F91FF90EF90DF900994B3
:10031000AF92BF92CF92DF92EF92FF920F931F9313
:10032000CF93DF936C017B018B01040F151FEB0151
:100330005E01AE18BF08C017D10759F06991D60108
:10034000ED91FC910190F081E02DC6010995892B7A
:1003500079F7C501DF91CF911F910F91FF90EF9039
:10036000DF90CF90BF90AF900895FC01538D448DE6
:10037000252F30E0842F90E0821B930B541710F050
:10038000CF96089501970895FC01918D828D98175D
:1003900061F0A28DAE0FBF2FB11D5D968C91928D35
:1003A0009F5F9F73928F90E008958FEF9FEF089566
:1003B000FC01918D828D981731F0828DE80FF11D2F
:1003C000858D90E008958FEF9FEF0895FC01918D4A
:1003D000228D892F90E0805C9F4F821B91098F7343
:1003E000992708958DE094E00E94E60121E0892B91
:1003F00009F420E0822F089580E090E0892B29F015
:100400000E94F20181110C9400000895FC01A48D5A
:10041000A80FB92FB11DA35ABF4F2C91848D90E026
:1004200001968F739927848FA689B7892C93A08909
:10043000B1898C91837080648C93938D848D981393
:1004400006C00288F389E02D80818F7D8083089526
:10045000EF92FF920F931F93CF93DF93EC0181E014
:10046000888F9B8D8C8D98131AC0E889F9898081BB
:1004700085FF15C09FB7F894EE89FF896083E889EE
:10048000F98980818370806480839FBF81E090E0E0
:10049000DF91CF911F910F91FF90EF900895F62E6D
:1004A0000B8D10E00F5F1F4F0F731127E02E8C8D07
:1004B0008E110CC00FB607FCFACFE889F98980814C
:1004C00085FFF5CFCE010E940602F1CFEB8DEC0F38
:1004D000FD2FF11DE35AFF4FF0829FB7F8940B8F69
:1004E000EA89FB8980818062CFCFCF93DF93EC01D3
:1004F000888D8823B9F0AA89BB89E889F9898C910C
:1005000085FD03C0808186FD0DC00FB607FCF7CFC7
:100510008C9185FFF2CF808185FFEDCFCE010E94C7
:100520000602E9CFDF91CF9108955091F2014091F9
:10053000F101842F90E0252F30E0541718F4821B2E
:10054000930B08958C5B9F4FFACF5091F50140912A
:10055000F401852F90E0242F30E0541718F0821B0F
:10056000930B0895805B9F4FFACF8091F501E09146
:10057000F4018E1751F0EF5FE03508F0E0E0F0E0B5
:10058000E456FE4F808190E008958FEF9FEF08952D
:100590008091F5019091F401891769F09F5F903582
:1005A00008F090E0E92FF0E0E456FE4F8081909350
:1005B000F40190E008958FEF9FEF08958091F3018B
:1005C0008111FCCF08958091F2018F5F843408F08F
:1005D00080E09091F1019817E1F32FB7F894909192
:1005E000F301992359F0E82FF0E0EE5AFE4F6083B3
:1005F0008093F2012FBF81E090E0089581E0809325
:10060000F301609397011092960182E086BB80917E
:100610006F00826080936F00809180008F7B806884
:100620008093800080918400909185004096909303
:10063000890080938800DECF42E050E064E471E0FE
:100640008DE094E00C948801CF93DF93682F8DE0C8
:1006500094E00E942802EC010E941C038C0F9D1F55
:10066000DF91CF910895CF93DF93CDB7DEB72F976A
:100670000FB6F894DEBF0FBECDBF8091AE0490914F
:10068000AF042FE0289FB001299F700D11246A56F6
:100690007F4FCE0101960E943B0F8FE0FE01319605
:1006A000A6E0B1E001900D928A95E1F72F960FB682
:1006B000F894DEBF0FBECDBFDF91CF9108951F929A
:1006C0000F920FB60F9211242F933F934F935F9386
:1006D0006F937F938F939F93AF93BF93EF93FF930A
:1006E0008DE094E00E940602FF91EF91BF91AF91DF
:1006F0009F918F917F916F915F914F913F912F913A
:100700000F900FBE0F901F9018951F920F920FB66B
:100710000F9211242F938F939F93EF93FF93E09168
:100720001D04F0911E048081E0912304F0912404C3
:1007300082FD1BC09081809126048F5F8F73209172
:100740002704821741F0E0912604F0E0E35FFB4FBD
:10075000958F80932604FF91EF919F918F912F9118
:100760000F900FBE0F901F9018958081F4CF1F92AD
:100770000F920FB60F9211242F933F938F939F9355
:10078000AF93BF938091C5029091C602A091C7021A
:10079000B091C8023091F00123E0230F2D3758F5B6
:1007A0000196A11DB11D2093F0018093C502909385
:1007B000C602A093C702B093C8028091EC01909149
:1007C000ED01A091EE01B091EF010196A11DB11DC7
:1007D0008093EC019093ED01A093EE01B093EF01B3
:1007E000BF91AF919F918F913F912F910F900FBE2D
:1007F0000F901F90189526E8230F0296A11DB11D9A
:10080000D2CF1F920F920FB60F9211242F938F9376
:100810009F93EF93FF9380916F008B7F80936F0086
:10082000809181008F7B809381008091F6012091DF
:100830009B01205890919A01893020F49695922B33
:100840008F5FFACF90939A018091F5018F5F803589
:1008500008F080E02091F401281739F0E82FF0E04B
:10086000E456FE4F90838093F5011092F60180913B
:1008700081008F7B8093810010929B01FF91EF910B
:100880009F918F912F910F900FBE0F901F901895F1
:100890001F920F920FB60F9211242F933F934F93F5
:1008A0005F936F937F938F939F93AF93BF93EF93D8
:1008B000FF93809186009091870040919B01209149
:1008C00081004423F1F12F7B2093810010929B0142
:1008D0003091F60131113CC0411122C02091F70145
:1008E0003091F801280F391F30938B0020938A0034
:1008F00024E026BB20916F00246020936F0020919C
:10090000F9013091FA01820F931F36952795280F30
:10091000391F309399012093980181E08093F6016B
:10092000FF91EF91BF91AF919F918F917F916F91C7
:100930005F914F913F912F910F900FBE0F901F909D
:10094000189520642093810020E820939B01C0CF5C
:1009500040919801509199016091F9017091FA01CB
:10096000DB01A095B095E0919B0120919A01841B39
:10097000950BA817B90768F126952E2B460F571F20
:100980003F5F861B970B3930A0F320939A0180912B
:100990006F008B7F80936F008091F5018F5F8035B2
:1009A00008F080E09091F401981749F0E82FF0E00A
:1009B00090919A01E456FE4F90838093F5018091C7
:1009C00081008F7B8093810010929B011092F60131
:1009D000A7CF20939A0150939901409398013093A7
:1009E000F6019ECF1F920F920FB60F9211242F93F4
:1009F0003F934F935F936F937F938F939F93EF9367
:100A0000FF932091F301609197018091880090916C
:100A100089004091F9015091FA01309196012A30F4
:100A200070F5840F951F762F7170293009F471E0ED
:100A300066952F5F371799F3309180007723E1F0A7
:100A4000306C30938000909389008093880070937D
:100A50009601609397012093F301FF91EF919F918D
:100A60008F917F916F915F914F913F912F910F9057
:100A70000FBE0F901F9018953F7B3068E2CF3091EA
:100A8000F201E091F1013E1319C02A3051F42BE03C
:100A90002093F301840F951F909389008093880021
:100AA000DCCF1092F301809180008F7380938000DF
:100AB00080916F008D7F80936F00CFCFEF5FE43424
:100AC00008F0E0E0E093F101F0E0EE5AFE4F3081F3
:100AD0003093970110929601309180003F7B3068EF
:100AE000309380002A3071F42091F9013091FA019D
:100AF000820F931F909389008093880081E08093F8
:100B0000F301ABCF80918400909185004096F2CFA5
:100B100080916F008B7F80936F0080916F008F7D3D
:100B200080936F008091F4018093F5018091F3012F
:100B30008111FCCF80916F008D7F80936F000895AD
:100B40000E94880586E391E09093B5048093B404F5
:100B50000C948805EDE0F4E01382128288EE93E0B5
:100B6000A0E0B0E084839583A683B78324E231E0DC
:100B70003183208325EC30E03587248724EC30E076
:100B80003787268720EC30E0318B208B21EC30E05A
:100B9000338B228B22EC30E0358B248B26EC30E03B
:100BA000378B268B118E128E138E148EE4EBF4E0AD
:100BB0001382128284839583A683B78386E391E0B0
:100BC0009183808380911E0190911F019093B304C3
:100BD0008093B2048091AE049091AF04A091B004D0
:100BE000B091B1048093AA049093AB04A093AC0499
:100BF000B093AD040895789484B5826084BD84B5C3
:100C0000816084BD85B5826085BD85B5816085BD07
:100C100080916E00816080936E00109281008091BF
:100C20008100826080938100809181008160809347
:100C30008100809180008160809380008091B1006C
:100C400084608093B1008091B00081608093B00097
:100C500080917A00846080937A0080917A0082602B
:100C600080937A0080917A00816080937A008091ED
:100C70007A00806880937A001092C1004AE050E0C8
:100C800067E471E08DE094E00E9488010E941C03FB
:100C900010926F001092800081E88093810086E1BD
:100CA00091E09093FA018093F9018BE09AE09093A0
:100CB000F8018093F701EAECF1E02491E6EBF1E032
:100CC00084918823C1F090E0880F991FFC01EC55B6
:100CD000FE4FC591D491FC01E656FE4FA591B4910B
:100CE0009FB7F8943881822F809583238883EC9175
:100CF000E22BEC939FBFEFE8F1E024914BEC51E045
:100D0000FA01349187EB91E0FC0164916623D9F0FC
:100D1000222359F0233009F45FC208F052C2213077
:100D200009F460C2223009F461C2E62FF0E0EE0F50
:100D3000FF1FE656FE4FA591B4912FB7F8946C9122
:100D4000362B3C932FBFFA014491FC0184918823F8
:100D500099F090E0880F991FFC01EC55FE4FA5918A
:100D6000B491FC01E656FE4F859194918FB7F894AB
:100D70009C91492B4C938FBF1092F6011092F50174
:100D80001092F4011092F3011092F2011092F1010D
:100D900080E286BB80936F00109263021092FF0185
:100DA0002FB7F8948091C5029091C602A091C70216
:100DB000B091C8022FBF8093FB019093FC01A093D8
:100DC000FD01B093FE01E4E6F2E081E6DF011D9251
:100DD0008A95E9F7E0911D04F0911E0482E080837A
:100DE000E0911904F0911A041082E0911B04F09133
:100DF0001C0480E1808310922504E0912104F0918D
:100E0000220486E08083E0911F04F0912004808119
:100E100080618083E0911F04F091200480818860CC
:100E20008083E0911F04F09120048081806880839A
:100E3000E0911F04F091200480818F7D80838DE0FC
:100E400094E0909308048093070484EF91E0A0E07D
:100E5000B0E08093090490930A04A0930B04B0932C
:100E60000C04C1E0E9E12E2EE8E03E2E84EB94E094
:100E70000E94A502892B09F4E2C184EB94E00E9450
:100E8000C80290916302913009F4C9C108F4BBC152
:100E9000923009F4C8C1933009F4C9C1E92FF0E0D8
:100EA000E050FE4F80839F35D0F460916102209125
:100EB00062028227282F2295122F082F02279801DD
:100EC000207F3F70A901440F551F3427032F0827A7
:100ED0002627122F152710936202009361029F5F4D
:100EE00090936302913610F220915F02309160027C
:100EF00080916102909162022817390709F09BC125
:100F000081E6E0E0F2E0A4E6B2E001900D928A957D
:100F1000E1F76091640270916502809166029091A0
:100F200067020E94031360936402709365028093CA
:100F300066029093670260916C0270916D028091DD
:100F40006E0290916F020E94031360936C02709383
:100F50006D0280936E0290936F0280917002909167
:100F600071029827892798279093710280937002C5
:100F70008091720290917302982789279827909305
:100F80007302809372028091740290917502982787
:100F90008927982790937502809374028091760236
:100FA00090917702982789279827909377028093CA
:100FB0007602809178029091790298278927982764
:100FC000909379028093780280917A0290917B02CB
:100FD00098278927982790937B0280937A028091A3
:100FE0007C0290917D0298278927982790937D0213
:100FF00080937C0280917E0290917F0298278927BE
:10100000982790937F0280937E0280918002909136
:1010100081029827892798279093810280938002E4
:101020008091820290918302982789279827909334
:101030008302809382028091840290918502982796
:101040008927982790938502809384028091860255
:1010500090918702982789279827909387028093F9
:101060008602809188029091890298278927982783
:10107000909389028093880280918A0290918B02DA
:1010800098278927982790938B0280938A028091D2
:101090008C0290918D0298278927982790938D0232
:1010A00080938C0280918E0290918F0298278927DD
:1010B000982790938F0280938E0280919002909156
:1010C0009102982789279827909391028093900204
:1010D000609194027091950280919602909197028E
:1010E0000E9403136093940270939502809396027A
:1010F00090939702609198027091990280919A0260
:1011000090919B020E94031360939802709399023E
:1011100080939A0290939B0260919C0270919D0231
:1011200080919E0290919F020E94031360939C0203
:1011300070939D0280939E0290939F028091A002E3
:101140009091A1029827892798279093A1028093D4
:10115000A0028091A2029091A30298278927982744
:101160009093A3028093A2026091A4027091A502C1
:101170008091A6029091A7020E9403136093A4029B
:101180007093A5028093A6029093A702C093FF01DB
:101190002FB7F8948091C5029091C602A091C70222
:1011A000B091C8022FBF8093FB019093FC01A093E4
:1011B000FD01B093FE016EE28DE094E00E942802F2
:1011C00024C02730B1F02830D1F0243009F0ADCD63
:1011D000209180002F7D03C0209180002F772093E5
:1011E0008000A3CD24B52F7724BD9FCD24B52F7DBE
:1011F000FBCF2091B0002F772093B00096CD2091A7
:10120000B0002F7DF9CF803B19F0109263022ECEF3
:10121000EFEFFFEFF0936202E09361023FCE8E3179
:1012200009F43CCEF2CF8E3D09F438CEEECF8D3AA4
:1012300009F434CEEACF8AE20E942403E6CF8091FB
:10124000FF01882309F12FB7F8948091C50290918E
:10125000C602A091C702B091C8022FBF4091FB0106
:101260005091FC016091FD017091FE01841B950B72
:10127000A60BB70B893B9B40A105B10528F0109246
:10128000FF0181E20E9424038091820290918302F7
:101290006AE070E00E94DB126093010480918E028C
:1012A00090918F0240918A0250918B026AE0649F74
:1012B0009001659F300D11243093B9032093B8033A
:1012C0009093B7038093B6036091A0027091A1023E
:1012D00090E080E00E94470F21EC3AEC41E350E4BB
:1012E0000E94A80F0E9412127093980360939703B4
:1012F000809190029091910290938B0380938A0346
:10130000809176029091770290938903809388036D
:101310008091780290917902909381038093800369
:10132000809172029091730264E670E00E94EF1265
:10133000072E000C880B990B0E94490F60936E03D7
:1013400070936F03809370039093710320916C02EC
:1013500030916D0240916E0250916F02AAE0B0E0B0
:101360000E94851060937C0370937D0380937E03BD
:1013700090937F038091940290919502A0919602A0
:10138000B09197028093FC039093FD03A093FE031A
:10139000B093FF038091980290919902A0919A02D4
:1013A000B0919B028093F8039093F903A093FA0302
:1013B000B093FB038091A4029091A502A091A60294
:1013C000B091A7028093EB039093EC03A093ED03FD
:1013D000B093EE038091A9028093F703853030F03B
:1013E000873008F064C482E0809300048091AA02F0
:1013F00090E0B0E0A0E08093AE049093AF04A0939F
:10140000B004B093B1042091920230E0AFEFB3E0AA
:101410000E94B21024E630E040E050E00E946610E6
:101420003093BB032093BA032FB7F8948091C50281
:101430009091C602A091C702B091C8022FBF4091FF
:1014400003045091040460910504709106046C013A
:101450007D01C41AD50AE60AF70AB701A601443687
:1014600051056105710508F46EC3809303049093E0
:101470000404A0930504B09306048091F3039091B3
:10148000F403A091F503B091F6030097A105B1050F
:1014900009F40FC48090EF039090F003A090F10343
:1014A000B090F20381149104A104B10409F401C4C1
:1014B000C090FC03D090FD03E090FE03F090FF038A
:1014C000BC01CD016C197D098E099F090E94490F4D
:1014D0006B017C018091F8039091F903A091FA03CC
:1014E000B091FB03A5019401281B390B4A0B5B0B40
:1014F000CA01B9010E94490F2091150130911601CE
:1015000040911701509118010E94A80F4B015C01F6
:10151000A7019601C701B6010E94A80F2B013C014B
:10152000A5019401C501B4010E94A80F9B01AC0163
:10153000C301B2010E94C2100E9482122CE23DE758
:101540004EE85FE30E94A80F0E9419122B013C0194
:10155000C701B6019058A50194010E94411120EAEB
:101560003CE043EB55E40E94A80F20E030EA4CE059
:1015700056E40E94C2100E9412126B017C01F7FE19
:1015800006C030EAC30E3CE8D31EE11CF11CC301C7
:10159000B20124E630E040E050E00E949010209339
:1015A0009303309394034093950350939603C7019C
:1015B000B60124E630E040E050E00E94661030932F
:1015C0008D0320938C038091020190910301A091DF
:1015D0000401B09105016C017D01E894C0F84091CF
:1015E000AE045091AF046091B0047091B1044230E8
:1015F00051056105710509F069C36894C1F8C0928D
:101600000201D0920301E0920401F0920501809161
:10161000020190910301A0910401B09105016C01B8
:101620007D01E894C4F84B3051056105710509F05E
:1016300057C36894C5F8C0920201D0920301E092AA
:101640000401F0920501D091190160911A01709185
:101650001B0180911C0190911D0124E833E040E0C2
:1016600050E00E949010672B682B692B09F042C351
:10167000D13009F03FC38091B2049091B304813D11
:10168000974080F080911E0190911F0120910001F0
:101690003091010130931F0120931E0190930101AD
:1016A0008093000184E08093E803C093E903C09332
:1016B000EA0343E068EE73E083E00E9417018FE0E5
:1016C000E6E0F1E0A9EDB3E001900D928A95E1F733
:1016D0004FE069ED73E08AE00E94170180910201FA
:1016E00090910301A0910401B09105018093C90379
:1016F0009093CA03A093CB03B093CC0346E163EC71
:1017000073E085E60E941701809101048093BC0379
:101710008091BA039091BB039093C0038093BF0361
:101720008091B8039091B9039093C2038093C10351
:101730008091B6039091B7039093BE038093BD034D
:1017400047E06CEB73E08EE60E9417018091B803CE
:101750009091B9039093B2038093B1032091010457
:10176000DAE02D9FC00111249093B5038093B40358
:101770008091B6039091B7039093B0038093AF0329
:10178000809102048093AB0380E594E19093AD03D4
:101790008093AC031092B3032093AE034BE06BEA4B
:1017A00073E082E80E9417018091FC039091FD0391
:1017B000A091FE03B091FF0380939B0390939C0341
:1017C000A0939D03B0939E038091F8039091F90339
:1017D000A091FA03B091FB0380939F039093A00321
:1017E000A093A103B093A2038091F70380939A037F
:1017F0008091EB039091EC039093A4038093A30357
:1018000080919703909198039093A6038093A503EA
:1018100042E169E973E08AE60E941701809193032F
:101820009091940390938F0380938E0380918C0307
:1018300090918D0320918A0330918B03821B930B2F
:10184000909391038093900345E06EE873E08BE6FC
:101850000E9417012091880330918903D29FC00113
:10186000D39F900D1124909385038093840320913E
:10187000800330918103D29FC001D39F900D11242A
:10188000909383038093820346E062E873E08CE6E2
:101890000E94170180917C0390917D03A0917E03AB
:1018A000B0917F038093720390937303A0937403AA
:1018B000B093750360916E0370916F038091700314
:1018C000909171030E9412127093770360937603D4
:1018D0004AE062E773E08DE60E9417011092CB02A6
:1018E00088E38093D00288E180934503A2E0B0E0D2
:1018F000B0935F03A0935E0380E180936603C0937F
:101900006B03C0936C0310926D03E0E0F8E0F0937A
:10191000D402E093D3023092D6022092D5028AEE0E
:1019200090E09093D8028093D7029093DA0280934C
:10193000D9029093DC028093DB029093DE028093C5
:10194000DD029093E0028093DF029093E2028093A5
:10195000E10220E638E03093E4022093E302909322
:10196000E6028093E5029093E8028093E70227E382
:1019700038E03093EA022093E9022AE538E0309318
:10198000EC022093EB0221EE38E03093EE0220933C
:10199000ED0220911E0130911F013093F00220933F
:1019A000EF0228EF38E03093F2022093F102909397
:1019B000F4028093F3029093F6028093F5029093E1
:1019C000F8028093F7029093FA028093F9029093C1
:1019D000FC028093FB029093FE028093FD029093A1
:1019E00000038093FF0223E939E030930203209340
:1019F000010323E739E0309304032093030390931A
:101A00000603809305032AEE39E030930803209300
:101A100007032EEE39E030930A03209309039093D5
:101A20000C0380930B0390930E0380930D032EE021
:101A300038E03093100320930F032FE038E0309309
:101A400012032093110390931403809313032AE14C
:101A500039E0309316032093150390931803809375
:101A6000170390931A038093190390931C03809398
:101A70001B0390931E0380931D0390932003809378
:101A80001F03909322038093210390932403809358
:101A90002303909326038093250390932803809338
:101AA000270390932A038093290390932C03809318
:101AB0002B0390932E0380932D03909330038093F8
:101AC0002F039093320380933103909334038093D8
:101AD00033039093360380933503909338038093B8
:101AE000370390933A038093390390933C03809398
:101AF0003B0390933E0380933D0390934003809378
:101B00003F03909342038093410390934403809357
:101B1000430345EA69EC72E084E50E941701809175
:101B20001A0190911B01A0911C01B0911D018C59CB
:101B30009F4FAF4FBF4F80931A0190931B01A0930B
:101B40001C01B0931D018091AE049091AF04A0914F
:101B5000B004B091B1044091AA045091AB046091DB
:101B6000AC047091AD0484179507A607B70751F030
:101B70008093AA049093AB04A093AC04B093AD04FB
:101B80000E94330380910204811109C080910104F5
:101B9000882329F08B3208F0B8C0C093020460910A
:101BA0001A0170911B0180911C0190911D0120E18F
:101BB00037E240E050E00E949010672B682B692BC1
:101BC00011F40E94330380910004833008F429C18A
:101BD00080911901813009F024C16091FC0370915A
:101BE000FD038091FE039091FF036115710581054E
:101BF000910509F416C1C090F803D090F903E09064
:101C0000FA03F090FB03C114D104E104F10409F4D8
:101C100008C12091F703263008F403C16093F30351
:101C20007093F4038093F5039093F603C092EF034F
:101C3000D092F003E092F103F092F2030E94490F78
:101C40009F7720E836E948E15BE40E94A01125E394
:101C50003AEF4EE85CE30E94A80F2BED3FE049EC21
:101C60005FE30E94C2106B017C010E941212605E51
:101C70007F4F8F4F9F4F613471058105910508F0AB
:101C8000F6C02BED3FE049E450E4C701B6010E94E5
:101C90006F1218160CF050C02BED3FE049EC50E4E9
:101CA000C701B6010E94C1106B017C01EACF83E03D
:101CB0009BCB109293031092940310929503109271
:101CC000960310928D0310928C037DCC8C7F8093B1
:101CD000020190930301A0930401B093050197CCF6
:101CE0008F7C8093020190930301A0930401B09331
:101CF0000501A9CCD111D6CC8091B2049091B30446
:101D000090931F0180931E01CDCC853520F482E095
:101D10008093020444CF8F3710F483E0F9CF893ADF
:101D200010F484E0F5CF833D10F485E0F1CF8F3FD0
:101D300009F435CF86E0ECCF2BED3FE049E450ECE1
:101D4000C701B6010E94420F87FF0BC02BED3FE099
:101D500049EC50E4C701B6010E94C2106B017C013E
:101D6000EBCF2BED3FE049EC5FE3C701B6010E94EA
:101D70006F1218160CF062C02BED3FE049EC5FE3E8
:101D8000C701B6010E94C1109B01AC016BED7FE061
:101D900089EC9FE30E94C1106B017C01A7019601B1
:101DA000C701B6010E94A80F4B015C0120E030E0A2
:101DB000A9010E94A80F22E937EE41E459E30E94ED
:101DC000C110A50194010E94A80F27E930E348E063
:101DD0005CE30E94C210A50194010E94A80F25E1B6
:101DE00038EA4AE25EE30E94C1102B013C01A501E2
:101DF0009401C701B6010E94A80F9B01AC01C30169
:101E0000B2010E94A80FA70196010E94C210609320
:101E10001501709316018093170190931801109289
:101E2000190180E090E0892B09F420C80E94F2019A
:101E3000882309F416C80E94000013C82BED3FE068
:101E400049EC5FEBC701B6010E94420F87FFA6CFA6
:101E50002BED3FE049EC5FE3C701B6010E94C210E1
:101E60009B01AC016BED7FE089EC9FEB93CF60E0D1
:101E700070E0CB01CCCFFB01DC0105900D9200207E
:101E8000E1F708950E94840F08F481E00895E89432
:101E900009C097FB3EF490958095709561957F4FB2
:101EA0008F4F9F4F9923A9F0F92F96E9BB27939560
:101EB000F695879577956795B795F111F8CFFAF470
:101EC000BB0F11F460FF1BC06F5F7F4F8F4F9F4FA1
:101ED00016C0882311F096E911C0772321F09EE8FF
:101EE000872F762F05C0662371F096E8862F70E065
:101EF00060E02AF09A95660F771F881FDAF7880F3F
:101F00009695879597F90895990F0008550FAA0B94
:101F1000E0E8FEEF16161706E807F907C0F01216FC
:101F20001306E407F50798F0621B730B840B950BFF
:101F300039F40A2661F0232B242B252B21F4089554
:101F40000A2609F4A140A6958FEF811D811D0895F1
:101F50000E94BB0F0C942C100E941E1038F00E949F
:101F6000251020F0952311F00C9415100C941B10E3
:101F700011240C9460100E943D1070F3959FC1F3E2
:101F8000950F50E0551F629FF001729FBB27F00D27
:101F9000B11D639FAA27F00DB11DAA1F649F66277C
:101FA000B00DA11D661F829F2227B00DA11D621FCB
:101FB000739FB00DA11D621F839FA00D611D221F85
:101FC000749F3327A00D611D231F849F600D211D69
:101FD000822F762F6A2F11249F5750409AF0F1F0EC
:101FE00088234AF0EE0FFF1FBB1F661F771F881F55
:101FF00091505040A9F79E3F510580F00C94151068
:102000000C9460105F3FE4F3983ED4F38695779587
:102010006795B795F795E7959F5FC1F7FE2B880FFA
:10202000911D9695879597F9089597F99F6780E890
:1020300070E060E008959FEF80EC089500240A941A
:102040001616170618060906089500240A94121693
:102050001306140605060895092E0394000C11F4C6
:10206000882352F0BB0F40F4BF2B11F460FF04C073
:102070006F5F7F4F8F4F9F4F089557FD9058440FCC
:10208000551F59F05F3F71F04795880F97FB991FD7
:1020900061F09F3F79F08795089512161306140694
:1020A000551FF2CF4695F1DF08C016161706180621
:1020B000991FF1CF86957105610508940895E894FC
:1020C000BB2766277727CB0197F90895052E97FB45
:1020D0001EF400940E947D1057FD07D00E949010BE
:1020E00007FC03D04EF40C947D105095409530952C
:1020F00021953F4F4F4F5F4F089590958095709574
:1021000061957F4F8F4F9F4F08950E94B210A59FFA
:10211000900DB49F900DA49F800D911D11240895E2
:10212000A1E21A2EAA1BBB1BFD010DC0AA1FBB1FDB
:10213000EE1FFF1FA217B307E407F50720F0A21B4D
:10214000B30BE40BF50B661F771F881F991F1A94BA
:1021500069F760957095809590959B01AC01BD01E4
:10216000CF010895A29FB001B39FC001A39F700D3E
:10217000811D1124911DB29F700D811D1124911D8F
:1021800008955058BB27AA270E94D9100C942C10F0
:102190000E941E1038F00E94251020F039F49F3F55
:1021A00019F426F40C941B100EF4E095E7FB0C9444
:1021B0001510E92F0E943D1058F3BA1762077307F4
:1021C0008407950720F079F4A6F50C945F100EF4BF
:1021D000E0950B2EBA2FA02D0B01B90190010C0137
:1021E000CA01A0011124FF27591B99F0593F50F44F
:1021F000503E68F11A16F040A22F232F342F4427A7
:10220000585FF3CF469537952795A795F04053959E
:10221000C9F77EF41F16BA0B620B730B840BBAF06E
:102220009150A1F0FF0FBB1F661F771F881FC2F7D9
:102230000EC0BA0F621F731F841F48F487957795ED
:102240006795B795F7959E3F08F0B0CF9395880FA7
:1022500008F09927EE0F9795879508950E941E1014
:1022600060F080E891E009F49EEF0E94251028F0CC
:1022700040E851E071F45EEF0CC00C941B100C941C
:102280005F10E92FE0780E943D1040F3092E052AE7
:10229000B1F3261737074807590738F00E2E07F80D
:1022A000E02569F0E025E0640AC0EF6307F80094D8
:1022B00007FADB01B9019D01DC01CA01AD01EF9311
:1022C0000E94B7110E942C100E9471115F9155233A
:1022D00039F02BED3FE049E450FD49EC0C94C2107D
:1022E0000895DF93DD27B92FBF7740E85FE3161627
:1022F000170648075B0718F4D92F0E9474129F93A2
:102300008F937F936F930E94C212E8E6F0E00E94E1
:1023100048120E942C102F913F914F915F910E9483
:10232000BB0FDD2351F09058A2EA2AED3FE049ECC3
:102330005FE3D0785D270E94D910DF910C942C10B8
:102340000E94B4110C942C100E94251058F00E9489
:102350001E1040F029F45F3F29F00C941510511124
:102360000C9460100C941B100E943D1068F399238C
:10237000B1F3552391F3951B550BBB27AA27621781
:102380007307840738F09F5F5F4F220F331F441F8E
:10239000AA1FA9F335D00E2E3AF0E0E832D09150C2
:1023A0005040E695001CCAF72BD0FE2F29D0660FAF
:1023B000771F881FBB1F261737074807AB07B0E8F2
:1023C00009F0BB0B802DBF01FF2793585F4F3AF0F8
:1023D0009E3F510578F00C9415100C9460105F3FEF
:1023E000E4F3983ED4F3869577956795B795F7957E
:1023F0009F5FC9F7880F911D9695879597F9089566
:10240000E1E0660F771F881FBB1F62177307840701
:10241000BA0720F0621B730B840BBA0BEE1F88F710
:10242000E09508950E9419126894B1110C946010FF
:1024300008950E94451088F09F5798F0B92F99276A
:10244000B751B0F0E1F0660F771F881F991F1AF09F
:10245000BA95C9F714C0B13091F00E945F10B1E095
:1024600008950C945F10672F782F8827B85F39F094
:10247000B93FCCF3869577956795B395D9F73EF438
:1024800090958095709561957F4F8F4F9F4F0895E0
:10249000DF93CF931F930F93FF92EF92DF927B0115
:1024A0008C01689406C0DA2EEF010E94BB0FFE017A
:1024B000E894A5912591359145915591A6F3EF01A9
:1024C0000E94D910FE019701A801DA9469F7DF9004
:1024D000EF90FF900F911F91CF91DF9108950E948F
:1024E000840F08F48FEF08959B01AC0160E070E069
:1024F00080E89FE30C94A01119F416F40C941B10BF
:102500000C94C6120E944510B8F39923C9F3B6F390
:102510009F57550B87FF0E94D4120024A0E640EA83
:10252000900180585695979528F4805C660F771F28
:10253000881F20F026173707480730F4621B730BFB
:10254000840B202931294A2BA6951794079420251E
:1025500031254A2758F7660F771F881F20F0261766
:102560003707480730F4620B730B840B200D311DC5
:10257000411DA09581F7B901842F9158880F969538
:10258000879508959B01AC010C94A80F9F3F31F0F3
:10259000915020F4879577956795B795880F911D91
:1025A0009695879597F9089591505040660F771F3B
:1025B000881FD2F70895AA1BBB1B51E107C0AA1FB1
:1025C000BB1FA617B70710F0A61BB70B881F991FD4
:1025D0005A95A9F780959095BC01CD01089597FB78
:1025E000072E16F4009407D077FD09D00E94DB1265
:1025F00007FC05D03EF4909581959F4F0895709506
:1026000061957F4F0895692796276927782787273F
:1026100078270895EE0FFF1F0590F491E02D09949F
:1026200010E0CCEED0E004C0FE010E940A13219617
:0A263000CD3ED107C9F7F894FFCFA3
:10263A00EA0001000000444A49414952554E4954B2
:10264A0000000000000000803F0164000000200834
:10265A000000000028028801B5017502E601C401E4
:10266A00D80100000000E30288019502DE02A502FB
:10267A00C802B5020D0A00696E6974207561727428
:02268A003A0014
:00000001FF
