:100000000C94ED000C9415010C9415010C94150141
:100010000C9415010C9415010C9415010C94150108
:100020000C9415010C9415010C9448040C94F204E2
:100030000C9401040C9415010C9415010C941501F9
:100040000C94B7030C9415010C9485030C945F0376
:100050000C9415010C9415010C9415010C941501C8
:100060000C9415010C941501084AD73B3BCE016E48
:1000700084BCBFFDC12F3D6C74319ABD56833DDAFF
:100080003D00C77F11BED9E4BB4C3E916BAAAABE0E
:10009000000000803F00324400000000000000002B
:1000A0000000000000574159504F494E54000000D5
:1000B0000000000032445F414C545F484F4C440004
:1000C00000000032445F48480000000000000000CB
:1000D00000004C4F49544552000000000000000051
:1000E0000033440000000000000000000000000099
:1000F00033445F4848000000000000000000005248
:1001000054480000000000000000000000004C41C6
:100110004E44000000000000000000000043415277
:1001200054455349414E00000000000043415254E1
:100130005F4C4F4954455200000000504F4C415213
:1001400000000000000000000000504F4C41525FD2
:100150004C4F4954455200000043454E5445525FB0
:10016000535449434B0000004D414E55414C000053
:10017000000000000000004D415800000000000099
:100180000000000000000000000800020100000361
:10019000040700000000000000000000000025002F
:1001A00028002B0000000000240027002A0004047F
:1001B000040404040404020202020202030303030F
:1001C00003030102040810204080010204081020EB
:1001D000010204081020AA05A00511241FBECFEFBC
:1001E000D8E0DEBFCDBF11E0A0E0B1E0EEE4F6E282
:1001F00002C005900D92AE34B107D9F724E0AEE409
:10020000B1E001C01D92A03CB207E1F710E0CCEED6
:10021000D0E004C02197FE010E941413CB3ED10709
:10022000C9F70E94FB050C941A130C940000DF928E
:10023000EF92FF920F931F93CF93DF93C82FD62F88
:10024000D72EF42E8091070490910804DC01ED91E3
:10025000FC910190F081E02D64E209958091070402
:1002600090910804DC01ED91FC910190F081E02D6A
:100270006DE409958091070490910804DC01ED91EB
:10028000FC910190F081E02D6CE3099580910704C9
:1002900090910804DC01ED91FC910190F081E02D3A
:1002A0006F2D09958091070490910804DC01ED9170
:1002B000FC910190F081E02D6C2F0995CF25ED2E5A
:1002C0000D2F1D2DF80161918F01C6278091070424
:1002D00090910804DC01ED91FC910190F081E02DFA
:1002E0000995802F8E198F1568F3809107049091DE
:1002F0000804DC01ED91FC910190F081E02D6C2F60
:10030000DF91CF911F910F91FF90EF90DF900994B3
:10031000AF92BF92CF92DF92EF92FF920F931F9313
:10032000CF93DF936C017B018B01040F151FEB0151
:100330005E01AE18BF08C017D10759F06991D60108
:10034000ED91FC910190F081E02DC6010995892B7A
:1003500079F7C501DF91CF911F910F91FF90EF9039
:10036000DF90CF90BF90AF900895FC01538D448DE6
:10037000252F30E0842F90E0821B930B541710F050
:10038000CF96089501970895FC01918D828D98175D
:1003900061F0A28DAE0FBF2FB11D5D968C91928D35
:1003A0009F5F9F73928F90E008958FEF9FEF089566
:1003B000FC01918D828D981731F0828DE80FF11D2F
:1003C000858D90E008958FEF9FEF0895FC01918D4A
:1003D000228D892F90E0805C9F4F821B91098F7343
:1003E000992708958DE094E00E94E60121E0892B91
:1003F00009F420E0822F089580E090E0892B29F015
:100400000E94F20181110C9400000895FC01A48D5A
:10041000A80FB92FB11DA35ABF4F2C91848D90E026
:1004200001968F739927848FA689B7892C93A08909
:10043000B1898C91837080648C93938D848D981393
:1004400006C00288F389E02D80818F7D8083089526
:10045000EF92FF920F931F93CF93DF93EC0181E014
:10046000888F9B8D8C8D98131AC0E889F9898081BB
:1004700085FF15C09FB7F894EE89FF896083E889EE
:10048000F98980818370806480839FBF81E090E0E0
:10049000DF91CF911F910F91FF90EF900895F62E6D
:1004A0000B8D10E00F5F1F4F0F731127E02E8C8D07
:1004B0008E110CC00FB607FCFACFE889F98980814C
:1004C00085FFF5CFCE010E940602F1CFEB8DEC0F38
:1004D000FD2FF11DE35AFF4FF0829FB7F8940B8F69
:1004E000EA89FB8980818062CFCFCF93DF93EC01D3
:1004F000888D8823B9F0AA89BB89E889F9898C910C
:1005000085FD03C0808186FD0DC00FB607FCF7CFC7
:100510008C9185FFF2CF808185FFEDCFCE010E94C7
:100520000602E9CFDF91CF9108955091EE014091FD
:10053000ED01842F90E0252F30E0541718F4821B32
:10054000930B08958C5B9F4FFACF5091F10140912E
:10055000F001852F90E0242F30E0541718F0821B13
:10056000930B0895805B9F4FFACF8091F101E0914A
:10057000F0018E1751F0EF5FE03508F0E0E0F0E0B9
:10058000E856FE4F808190E008958FEF9FEF089529
:100590008091F1019091F001891769F09F5F90358A
:1005A00008F090E0E92FF0E0E856FE4F808190934C
:1005B000F00190E008958FEF9FEF08958091EF0193
:1005C0008111FCCF08958091EE018F5F843408F093
:1005D00080E09091ED019817E1F32FB7F894909196
:1005E000EF01992359F0E82FF0E0E25BFE4F6083C2
:1005F0008093EE012FBF81E090E0089581E0809329
:10060000EF01609393011092920182E086BB80918A
:100610006F00826080936F00809180008F7B806884
:100620008093800080918400909185004096909303
:10063000890080938800DECF42E050E060E471E002
:100640008DE094E00C948801CF93DF93682F8DE0C8
:1006500094E00E942802EC010E941C038C0F9D1F55
:10066000DF91CF910895CF93DF93CDB7DEB72F976A
:100670000FB6F894DEBF0FBECDBF8091AE0490914F
:10068000AF042FE0289FB001299F700D11246A56F6
:100690007F4FCE0101960E94450F8FE0FE013196FB
:1006A000A2E0B1E001900D928A95E1F72F960FB686
:1006B000F894DEBF0FBECDBFDF91CF9108951F929A
:1006C0000F920FB60F9211242F933F934F935F9386
:1006D0006F937F938F939F93AF93BF93EF93FF930A
:1006E0008DE094E00E940602FF91EF91BF91AF91DF
:1006F0009F918F917F916F915F914F913F912F913A
:100700000F900FBE0F901F9018951F920F920FB66B
:100710000F9211242F938F939F93EF93FF93E09168
:100720001D04F0911E048081E0912304F0912404C3
:1007300082FD1BC09081809126048F5F8F73209172
:100740002704821741F0E0912604F0E0E35FFB4FBD
:10075000958F80932604FF91EF919F918F912F9118
:100760000F900FBE0F901F9018958081F4CF1F92AD
:100770000F920FB60F9211242F933F938F939F9355
:10078000AF93BF938091C1029091C202A091C30226
:10079000B091C4023091EC0123E0230F2D3758F5BE
:1007A0000196A11DB11D2093EC018093C10290938D
:1007B000C202A093C302B093C4028091E801909159
:1007C000E901A091EA01B091EB010196A11DB11DD3
:1007D0008093E8019093E901A093EA01B093EB01C3
:1007E000BF91AF919F918F913F912F910F900FBE2D
:1007F0000F901F90189526E8230F0296A11DB11D9A
:10080000D2CF1F920F920FB60F9211242F938F9376
:100810009F93EF93FF9380916F008B7F80936F0086
:10082000809181008F7B809381008091F2012091E3
:100830009701205890919601893020F49695922B3B
:100840008F5FFACF909396018091F1018F5F803591
:1008500008F080E02091F001281739F0E82FF0E04F
:10086000E856FE4F90838093F1011092F20180913F
:1008700081008F7B8093810010929701FF91EF910F
:100880009F918F912F910F900FBE0F901F901895F1
:100890001F920F920FB60F9211242F933F934F93F5
:1008A0005F936F937F938F939F93AF93BF93EF93D8
:1008B000FF9380918600909187004091970120914D
:1008C00081004423F1F12F7B209381001092970146
:1008D0003091F20131113CC0411122C02091F3014D
:1008E0003091F401280F391F30938B0020938A0038
:1008F00024E026BB20916F00246020936F0020919C
:10090000F5013091F601820F931F36952795280F38
:10091000391F309395012093940181E08093F20177
:10092000FF91EF91BF91AF919F918F917F916F91C7
:100930005F914F913F912F910F900FBE0F901F909D
:10094000189520642093810020E820939701C0CF60
:1009500040919401509195016091F5017091F601DB
:10096000DB01A095B095E091970120919601841B41
:10097000950BA817B90768F126952E2B460F571F20
:100980003F5F861B970B3930A0F32093960180912F
:100990006F008B7F80936F008091F1018F5F8035B6
:1009A00008F080E09091F001981749F0E82FF0E00E
:1009B00090919601E856FE4F90838093F1018091CB
:1009C00081008F7B80938100109297011092F20139
:1009D000A7CF2093960150939501409394013093B3
:1009E000F2019ECF1F920F920FB60F9211242F93F8
:1009F0003F934F935F936F937F938F939F93EF9367
:100A0000FF932091EF016091930180918800909174
:100A100089004091F5015091F601309192012A3000
:100A200070F5840F951F762F7170293009F471E0ED
:100A300066952F5F371799F3309180007723E1F0A7
:100A4000306C30938000909389008093880070937D
:100A50009201609393012093EF01FF91EF919F9199
:100A60008F917F916F915F914F913F912F910F9057
:100A70000FBE0F901F9018953F7B3068E2CF3091EA
:100A8000EE01E091ED013E1319C02A3051F42BE044
:100A90002093EF01840F951F909389008093880025
:100AA000DCCF1092EF01809180008F7380938000E3
:100AB00080916F008D7F80936F00CFCFEF5FE43424
:100AC00008F0E0E0E093ED01F0E0E25BFE4F308102
:100AD0003093930110929201309180003F7B3068F7
:100AE000309380002A3071F42091F5013091F601A5
:100AF000820F931F909389008093880081E08093F8
:100B0000EF01ABCF80918400909185004096F2CFA9
:100B100080916F008B7F80936F0080916F008F7D3D
:100B200080936F008091F0018093F1018091EF013B
:100B30008111FCCF80916F008D7F80936F000895AD
:100B40000E94880582E391E09093B5048093B404F9
:100B50000C948805EDE0F4E01382128288EE93E0B5
:100B6000A0E0B0E084839583A683B78320E231E0E0
:100B70003183208325EC30E03587248724EC30E076
:100B80003787268720EC30E0318B208B21EC30E05A
:100B9000338B228B22EC30E0358B248B26EC30E03B
:100BA000378B268B118E128E138E148EE4EBF4E0AD
:100BB0001382128284839583A683B78382E391E0B4
:100BC0009183808380911A0190911B019093B304CB
:100BD0008093B2048091AE049091AF04A091B004D0
:100BE000B091B1048093AA049093AB04A093AC0499
:100BF000B093AD040895789484B5826084BD84B5C3
:100C0000816084BD85B5826085BD85B5816085BD07
:100C100080916E00816080936E00109281008091BF
:100C20008100826080938100809181008160809347
:100C30008100809180008160809380008091B1006C
:100C400084608093B1008091B00081608093B00097
:100C500080917A00846080937A0080917A0082602B
:100C600080937A0080917A00816080937A008091ED
:100C70007A00806880937A001092C1004AE050E0C8
:100C800063E471E08DE094E00E9488010E941C03FF
:100C900010926F001092800081E88093810086E1BD
:100CA00091E09093F6018093F5018BE09AE09093A8
:100CB000F4018093F301EAECF1E02491E6EBF1E03A
:100CC00084918823C1F090E0880F991FFC01EC55B6
:100CD000FE4FC591D491FC01E656FE4FA591B4910B
:100CE0009FB7F8943881822F809583238883EC9175
:100CF000E22BEC939FBFEFE8F1E024914BEC51E045
:100D0000FA01349187EB91E0FC0164916623D9F0FC
:100D1000222359F0233009F45FC208F052C2213077
:100D200009F460C2223009F461C2E62FF0E0EE0F50
:100D3000FF1FE656FE4FA591B4912FB7F8946C9122
:100D4000362B3C932FBFFA014491FC0184918823F8
:100D500099F090E0880F991FFC01EC55FE4FA5918A
:100D6000B491FC01E656FE4F859194918FB7F894AB
:100D70009C91492B4C938FBF1092F2011092F1017C
:100D80001092F0011092EF011092EE011092ED011D
:100D900080E286BB80936F0010925F021092FB018D
:100DA0002FB7F8948091C1029091C202A091C30222
:100DB000B091C4022FBF8093F7019093F801A093E4
:100DC000F901B093FA01E0E6F2E081E6DF011D925D
:100DD0008A95E9F7E0911D04F0911E0482E080837A
:100DE000E0911904F0911A041082E0911B04F09133
:100DF0001C0480E1808310922504E0912104F0918D
:100E0000220486E08083E0911F04F0912004808119
:100E100080618083E0911F04F091200480818860CC
:100E20008083E0911F04F09120048081806880839A
:100E3000E0911F04F091200480818F7D80838DE0FC
:100E400094E0909308048093070484EF91E0A0E07D
:100E5000B0E08093090490930A04A0930B04B0932C
:100E60000C04C1E0E9E12E2EE8E03E2E84EB94E094
:100E70000E94A502892B09F4E2C184EB94E00E9450
:100E8000C80290915F02913009F4C9C108F4BBC156
:100E9000923009F4C8C1933009F4C9C1E92FF0E0D8
:100EA000E450FE4F80839F35D0F460915D02209125
:100EB0005E028227282F2295122F082F02279801E1
:100EC000207F3F70A901440F551F3427032F0827A7
:100ED0002627122F152710935E0200935D029F5F55
:100EE00090935F02913610F220915B0230915C0288
:100EF00080915D0290915E022817390709F09BC12D
:100F000081E6ECEFF1E0A0E6B2E001900D928A9567
:100F1000E1F76091600270916102809162029091AC
:100F200063020E940D1360936002709361028093CC
:100F300062029093630260916802709169028091ED
:100F40006A0290916B020E940D1360936802709385
:100F5000690280936A0290936B0280916C02909177
:100F60006D0298278927982790936D0280936C02D1
:100F700080916E0290916F0298278927982790930D
:100F80006F0280936E028091700290917102982797
:100F90008927982790937102809370028091720242
:100FA00090917302982789279827909373028093D2
:100FB0007202809174029091750298278927982770
:100FC00090937502809374028091760290917702DB
:100FD00098278927982790937702809376028091AB
:100FE000780290917902982789279827909379021F
:100FF0008093780280917A0290917B0298278927CA
:10100000982790937B0280937A0280917C02909142
:101010007D0298278927982790937D0280937C02F0
:1010200080917E0290917F0298278927982790933C
:101030007F0280937E0280918002909181029827A6
:101040008927982790938102809380028091820261
:101050009091830298278927982790938302809301
:10106000820280918402909185029827892798278F
:1010700090938502809384028091860290918702EA
:1010800098278927982790938702809386028091DA
:10109000880290918902982789279827909389023E
:1010A0008093880280918A0290918B0298278927E9
:1010B000982790938B0280938A0280918C02909162
:1010C0008D0298278927982790938D0280938C0210
:1010D000609190027091910280919202909193029E
:1010E0000E940D136093900270939102809392027C
:1010F0009093930260919402709195028091960270
:10110000909197020E940D13609394027093950240
:101110008093960290939702609198027091990241
:1011200080919A0290919B020E940D136093980205
:101130007093990280939A0290939B0280919C02F3
:1011400090919D0298278927982790939D028093DC
:101150009C0280919E0290919F0298278927982750
:1011600090939F0280939E026091A0027091A102D1
:101170008091A2029091A3020E940D136093A0029D
:101180007093A1028093A2029093A302C093FB01EB
:101190002FB7F8948091C1029091C202A091C3022E
:1011A000B091C4022FBF8093F7019093F801A093F0
:1011B000F901B093FA016EE28DE094E00E942802FA
:1011C00024C02730B1F02830D1F0243009F0ADCD63
:1011D000209180002F7D03C0209180002F772093E5
:1011E0008000A3CD24B52F7724BD9FCD24B52F7DBE
:1011F000FBCF2091B0002F772093B00096CD2091A7
:10120000B0002F7DF9CF803B19F010925F022ECEF7
:10121000EFEFFFEFF0935E02E0935D023FCE8E3181
:1012200009F43CCEF2CF8E3D09F438CEEECF8D3AA4
:1012300009F434CEEACF8AE20E942403E6CF8091FB
:10124000FB01882309F12FB7F8948091C102909196
:10125000C202A091C302B091C4022FBF4091F70116
:101260005091F8016091F9017091FA01841B950B7E
:10127000A60BB70B893B9B40A105B10528F0109246
:10128000FB0181E20E94240380917E0290917F0203
:101290006AE070E00E94E5126093010480918A0286
:1012A00090918B0240918602509187026AE0649F80
:1012B0009001659F300D11243093B5032093B40342
:1012C0009093B3038093B20360919C0270919D024E
:1012D00090E080E00E94510F21EC3AEC41E350E4B1
:1012E0000E94B20F0E941C127093940360939303A8
:1012F00080918C0290918D02909387038093860356
:10130000809172029091730290938503809384037D
:10131000809174029091750290937D0380937C0379
:1013200080916E0290916F0264E670E00E94F91263
:10133000072E000C880B990B0E94530F60936A03D1
:1013400070936B0380936C0390936D0320916802FC
:101350003091690240916A0250916B02AAE0B0E0BC
:101360000E948F10609378037093790380937A03BF
:1013700090937B038091900290919102A0919202B0
:10138000B09193028093FC039093FD03A093FE031E
:10139000B093FF038091940290919502A0919602E0
:1013A000B09197028093F8039093F903A093FA0306
:1013B000B093FB034091A0025091A1026091A20260
:1013C0007091A3024093EB035093EC036093ED0301
:1013D0007093EE03892B8A2B8B2B09F46FC48091B9
:1013E000A5028093F7038091F703843030F08630B4
:1013F00008F067C482E0809300048091A60290E028
:10140000B0E0A0E08093AE049093AF04A093B0044A
:10141000B093B10420918E0230E0AFEFB3E00E94B0
:10142000BC1024E630E040E050E00E9470103093A1
:10143000B7032093B6032FB7F8948091C10290911F
:10144000C202A091C302B091C4022FBF4091030415
:101450005091040460910504709106046C017D01B3
:10146000C41AD50AE60AF70AB701A601443651059F
:101470006105710508F46EC380930304909304041E
:10148000A0930504B09306048091F3039091F403B4
:10149000A091F503B091F6030097A105B10509F4F9
:1014A00012C48090EF039090F003A090F103B090ED
:1014B000F20381149104A104B10409F404C4C0909E
:1014C000FC03D090FD03E090FE03F090FF03BC010D
:1014D000CD016C197D098E099F090E94530F6B0184
:1014E0007C018091F8039091F903A091FA03B091E7
:1014F000FB03A5019401281B390B4A0B5B0BCA01A6
:10150000B9010E94530F20911101309112014091B5
:101510001301509114010E94B20F4B015C01A7010D
:101520009601C701B6010E94B20F2B013C01A50133
:101530009401C501B4010E94B20F9B01AC01C3012B
:10154000B2010E94CC100E948C122CE23DE74EE8C2
:101550005FE30E94B20F0E9423122B013C01C701DE
:10156000B6019058A50194010E944B1120EA3CE07D
:1015700043EB55E40E94B20F20E030EA4CE056E421
:101580000E94CC100E941C126B017C01F7FE06C069
:1015900030EAC30E3CE8D31EE11CF11CC301B201CA
:1015A00024E630E040E050E00E949A1020938F0340
:1015B000309390034093910350939203C701B60177
:1015C00024E630E040E050E00E9470103093890340
:1015D000209388038091D5039091D603A091D703DF
:1015E000B091D8036C017D01E894C0F84091AE043D
:1015F0005091AF046091B0047091B1044230510534
:101600006105710509F06CC36894C1F8C092D503F7
:10161000D092D603E092D703F092D8038091D503FD
:101620009091D603A091D703B091D8036C017D01AE
:10163000E894C4F84B3051056105710509F05AC3AF
:101640006894C5F8C092D503D092D603E092D70330
:10165000F092D803D0911501609116017091170195
:10166000809118019091190124E833E040E050E0A6
:101670000E949A10672B682B692B09F045C3D13063
:1016800009F042C38091B2049091B304813D974028
:1016900080F080911A0190911B01209100013091FE
:1016A000010130931B0120931A0190930101809353
:1016B000000184E08093E803C093E903C093EA0348
:1016C00043E068EE73E083E00E9417018FE0E2E000
:1016D000F1E0A9EDB3E001900D928A95E1F74FE0BA
:1016E00069ED73E08AE00E9417018091D503909123
:1016F000D603A091D703B091D8038093C5039093EC
:10170000C603A093C703B093C80346E16FEB73E031
:1017100085E60E941701809101048093B8038091AF
:10172000B6039091B7039093BC038093BB03809161
:10173000B4039091B5039093BE038093BD03809151
:10174000B2039091B3039093BA038093B90347E037
:1017500068EB73E08EE60E9417018091B4039091CC
:10176000B5039093AE038093AD0320910104DAE0BA
:101770002D9FC00111249093B1038093B0038091F9
:10178000B2039091B3039093AC038093AB03809129
:1017900002048093A70380E594E19093A9038093CA
:1017A000A8031092AF032093AA034BE067EA73E00B
:1017B00082E80E9417018091FC039091FD03A091A3
:1017C000FE03B091FF038093970390939803A09337
:1017D0009903B0939A038091F8039091F903A09133
:1017E000FA03B091FB0380939B0390939C03A09317
:1017F0009D03B0939E038091F7038093960380919D
:10180000EB039091EC039093A00380939F0380914E
:101810009303909194039093A2038093A10342E1D8
:1018200065E973E08AE60E94170180918F03909129
:10183000900390938B0380938A0380918803909107
:1018400089032091860330918703821B930B909329
:101850008D0380938C0345E06AE873E08BE60E9479
:1018600017012091840330918503D29FC001D39F3B
:10187000900D1124909381038093800320917C0329
:1018800030917D03D29FC001D39F900D112490937E
:101890007F0380937E0346E06EE773E08CE60E9450
:1018A00017018091780390917903A0917A03B09108
:1018B0007B0380936E0390936F03A0937003B093A8
:1018C000710360916A0370916B0380916C03909136
:1018D0006D030E941C1270937303609372034AE0BD
:1018E0006EE673E08DE60E9417011092C70288E34E
:1018F0008093CC0288E180934103A2E0B0E0B093F2
:101900005B03A0935A0380E180936203C093670353
:10191000C093680310926903E0E0F8E0F093D0020E
:10192000E093CF023092D2022092D1028AEE90E070
:101930009093D4028093D3029093D6028093D502E1
:101940009093D8028093D7029093DA028093D902C1
:101950009093DC028093DB029093DE028093DD02A1
:1019600020E638E03093E0022093DF029093E20219
:101970008093E1029093E4028093E30227E338E04E
:101980003093E6022093E5022AE538E03093E8023E
:101990002093E70221EE38E03093EA022093E90237
:1019A00020911A0130911B013093EC022093EB023D
:1019B00028EF38E03093EE022093ED029093F0028E
:1019C0008093EF029093F2028093F1029093F402DD
:1019D0008093F3029093F6028093F5029093F802BD
:1019E0008093F7029093FA028093F9029093FC029D
:1019F0008093FB0223E939E03093FE022093FD023D
:101A000023E739E0309300032093FF029093020311
:101A1000809301032AEE39E03093040320930303FB
:101A20002EEE39E0309306032093050390930803CC
:101A30008093070390930A03809309032EE038E014
:101A400030930C0320930B032FE038E030930E0308
:101A500020930D039093100380930F032AE139E044
:101A60003093120320931103909314038093130374
:101A70009093160380931503909318038093170394
:101A800090931A038093190390931C0380931B0374
:101A900090931E0380931D039093200380931F0354
:101AA0009093220380932103909324038093230334
:101AB0009093260380932503909328038093270314
:101AC00090932A038093290390932C0380932B03F4
:101AD00090932E0380932D039093300380932F03D4
:101AE00090933203809331039093340380933303B4
:101AF0009093360380933503909338038093370394
:101B000090933A038093390390933C0380933B0373
:101B100090933E0380933D039093400380933F0353
:101B200045EA65EC72E084E50E9417018091160198
:101B300090911701A0911801B09119018C599F4FF4
:101B4000AF4FBF4F8093160190931701A0931801D8
:101B5000B09319018091AE049091AF04A091B004AC
:101B6000B091B1044091AA045091AB046091AC04CF
:101B70007091AD0484179507A607B70751F08093BD
:101B8000AA049093AB04A093AC04B093AD040E945C
:101B9000330380910204811109C0809101048823DC
:101BA00029F08B3208F0BBC0C0930204609116018B
:101BB00070911701809118019091190120E137E28D
:101BC00040E050E00E949A10672B682B692B11F4BB
:101BD0000E94330380910004833008F42CC180916B
:101BE0001501813009F027C16091FC037091FD035C
:101BF0008091FE039091FF036115710581059105A8
:101C000009F419C1C090F803D090F903E090FA03E9
:101C1000F090FB03C114D104E104F10409F40BC1F9
:101C20002091F703263008F406C16093F303709304
:101C3000F4038093F5039093F603C092EF03D092E0
:101C4000F003E092F103F092F2030E94530F9F77AA
:101C500020E836E948E15BE40E94AA1125E33AEF67
:101C60004EE85CE30E94B20F2BED3FE049EC5FE3EE
:101C70000E94CC106B017C010E941C12605E7F4FA1
:101C80008F4F9F4F613471058105910508F0F9C0B0
:101C90002BED3FE049E450E4C701B6010E94791200
:101CA00018160CF053C02BED3FE049EC50E4C7018F
:101CB000B6010E94CB106B017C01EACF1092F703B2
:101CC00092CB83E098CB10928F03109290031092E6
:101CD00091031092920310928903109288037ACC98
:101CE0008C7F8093D5039093D603A093D703B093B2
:101CF000D80394CC8F7C8093D5039093D603A09384
:101D0000D703B093D803A6CCD111D3CC8091B20421
:101D10009091B30490931B0180931A01CACC85352E
:101D200020F482E08093020441CF8F3710F483E0E7
:101D3000F9CF893A10F484E0F5CF833D10F485E0C3
:101D4000F1CF8F3F09F432CF86E0ECCF2BED3FE0AF
:101D500049E450ECC701B6010E944C0F87FF0BC04D
:101D60002BED3FE049EC50E4C701B6010E94CC10D6
:101D70006B017C01EBCF2BED3FE049EC5FE3C7014A
:101D8000B6010E94791218160CF062C02BED3FE0EC
:101D900049EC5FE3C701B6010E94CB109B01AC0187
:101DA0006BED7FE089EC9FE30E94CB106B017C011F
:101DB000A7019601C701B6010E94B20F4B015C0159
:101DC00020E030E0A9010E94B20F22E937EE41E4A1
:101DD00059E30E94CB10A50194010E94B20F27E99C
:101DE00030E348E05CE30E94CC10A50194010E941E
:101DF000B20F25E138EA4AE25EE30E94CB102B01E4
:101E00003C01A5019401C701B6010E94B20F9B01DC
:101E1000AC01C301B2010E94B20FA70196010E945A
:101E2000CC10609311017093120180931301909371
:101E300014011092150180E090E0892B09F416C876
:101E40000E94F201882309F40CC80E94000009C80E
:101E50002BED3FE049EC5FEBC701B6010E944C0F50
:101E600087FFA6CF2BED3FE049EC5FE3C701B6014A
:101E70000E94CC109B01AC016BED7FE089EC9FEBE5
:101E800093CF60E070E0CB01CCCFFB01DC0105908B
:101E90000D920020E1F708950E948E0F08F481E072
:101EA0000895E89409C097FB3EF49095809570954D
:101EB00061957F4F8F4F9F4F9923A9F0F92F96E996
:101EC000BB279395F695879577956795B795F1110B
:101ED000F8CFFAF4BB0F11F460FF1BC06F5F7F4FA8
:101EE0008F4F9F4F16C0882311F096E911C07723BA
:101EF00021F09EE8872F762F05C0662371F096E8C3
:101F0000862F70E060E02AF09A95660F771F881F91
:101F1000DAF7880F9695879597F90895990F000835
:101F2000550FAA0BE0E8FEEF16161706E807F907AB
:101F3000C0F012161306E407F50798F0621B730B46
:101F4000840B950B39F40A2661F0232B242B252BC7
:101F500021F408950A2609F4A140A6958FEF811D6A
:101F6000811D08950E94C50F0C9436100E94281000
:101F700038F00E942F1020F0952311F00C941F10C0
:101F80000C94251011240C946A100E94471070F3D1
:101F9000959FC1F3950F50E0551F629FF001729F0E
:101FA000BB27F00DB11D639FAA27F00DB11DAA1F1D
:101FB000649F6627B00DA11D661F829F2227B00D6A
:101FC000A11D621F739FB00DA11D621F839FA00DF5
:101FD000611D221F749F3327A00D611D231F849F45
:101FE000600D211D822F762F6A2F11249F5750409C
:101FF0009AF0F1F088234AF0EE0FFF1FBB1F661F17
:10200000771F881F91505040A9F79E3F510580F0DF
:102010000C941F100C946A105F3FE4F3983ED4F3C5
:10202000869577956795B795F795E7959F5FC1F783
:10203000FE2B880F911D9695879597F9089597F92E
:102040009F6780E870E060E008959FEF80EC08955E
:1020500000240A9416161706180609060895002487
:102060000A9412161306140605060895092E039401
:10207000000C11F4882352F0BB0F40F4BF2B11F475
:1020800060FF04C06F5F7F4F8F4F9F4F089557FDD4
:102090009058440F551F59F05F3F71F04795880FD6
:1020A00097FB991F61F09F3F79F08795089512166D
:1020B00013061406551FF2CF4695F1DF08C0161619
:1020C00017061806991FF1CF8695710561050894CA
:1020D0000895E894BB2766277727CB0197F90895E1
:1020E000052E97FB1EF400940E94871057FD07D021
:1020F0000E949A1007FC03D04EF40C948710509560
:102100004095309521953F4F4F4F5F4F08959095E3
:102110008095709561957F4F8F4F9F4F08950E94D6
:10212000BC10A59F900DB49F900DA49F800D911D94
:1021300011240895A1E21A2EAA1BBB1BFD010DC09C
:10214000AA1FBB1FEE1FFF1FA217B307E407F50767
:1021500020F0A21BB30BE40BF50B661F771F881F43
:10216000991F1A9469F760957095809590959B01D9
:10217000AC01BD01CF010895A29FB001B39FC00182
:10218000A39F700D811D1124911DB29F700D811DA3
:102190001124911D08955058BB27AA270E94E310CF
:1021A0000C9436100E94281038F00E942F1020F056
:1021B00039F49F3F19F426F40C9425100EF4E095A1
:1021C000E7FB0C941F10E92F0E94471058F3BA1731
:1021D000620773078407950720F079F4A6F50C943D
:1021E00069100EF4E0950B2EBA2FA02D0B01B9014A
:1021F00090010C01CA01A0011124FF27591B99F07D
:10220000593F50F4503E68F11A16F040A22F232F88
:10221000342F4427585FF3CF469537952795A795D8
:10222000F0405395C9F77EF41F16BA0B620B730B7F
:10223000840BBAF09150A1F0FF0FBB1F661F771FF0
:10224000881FC2F70EC0BA0F621F731F841F48F4A5
:10225000879577956795B795F7959E3F08F0B0CF2E
:102260009395880F08F09927EE0F97958795089515
:102270000E94281060F080E891E009F49EEF0E942F
:102280002F1028F040E851E071F45EEF0CC00C9480
:1022900025100C946910E92FE0780E94471040F354
:1022A000092E052AB1F3261737074807590738F0D2
:1022B0000E2E07F8E02569F0E025E0640AC0EF6320
:1022C00007F8009407FADB01B9019D01DC01CA019E
:1022D000AD01EF930E94C1110E9436100E947B1144
:1022E0005F91552339F02BED3FE049E450FD49EC77
:1022F0000C94CC100895DF93DD27B92FBF7740E809
:102300005FE31616170648075B0718F4D92F0E94DB
:102310007E129F938F937F936F930E94CC12E8E677
:10232000F0E00E9452120E9436102F913F914F917F
:102330005F910E94C50FDD2351F09058A2EA2AED6B
:102340003FE049EC5FE3D0785D270E94E310DF9126
:102350000C9436100E94BE110C9436100E942F105F
:1023600058F00E94281040F029F45F3F29F00C94A7
:102370001F1051110C946A100C9425100E944710E4
:1023800068F39923B1F3552391F3951B550BBB27A4
:10239000AA2762177307840738F09F5F5F4F220FE9
:1023A000331F441FAA1FA9F335D00E2E3AF0E0E8E0
:1023B00032D091505040E695001CCAF72BD0FE2F2A
:1023C00029D0660F771F881FBB1F261737074807BE
:1023D000AB07B0E809F0BB0B802DBF01FF27935876
:1023E0005F4F3AF09E3F510578F00C941F100C940B
:1023F0006A105F3FE4F3983ED4F38695779567952E
:10240000B795F7959F5FC9F7880F911D96958795AA
:1024100097F90895E1E0660F771F881FBB1F6217C9
:1024200073078407BA0720F0621B730B840BBA0B87
:10243000EE1F88F7E09508950E9423126894B11169
:102440000C946A1008950E944F1088F09F5798F0DE
:10245000B92F9927B751B0F0E1F0660F771F881FA9
:10246000991F1AF0BA95C9F714C0B13091F00E94C3
:102470006910B1E008950C946910672F782F8827B0
:10248000B85F39F0B93FCCF3869577956795B395EA
:10249000D9F73EF490958095709561957F4F8F4F59
:1024A0009F4F0895DF93CF931F930F93FF92EF9267
:1024B000DF927B018C01689406C0DA2EEF010E9446
:1024C000C50FFE01E894A59125913591459155914F
:1024D000A6F3EF010E94E310FE019701A801DA9430
:1024E00069F7DF90EF90FF900F911F91CF91DF91EF
:1024F00008950E948E0F08F48FEF08959B01AC01A0
:1025000060E070E080E89FE30C94AA1119F416F4DF
:102510000C9425100C94D0120E944F10B8F39923FC
:10252000C9F3B6F39F57550B87FF0E94DE120024B4
:10253000A0E640EA900180585695979528F4805C73
:10254000660F771F881F20F026173707480730F4DB
:10255000621B730B840B202931294A2BA6951794F3
:102560000794202531254A2758F7660F771F881FC3
:1025700020F026173707480730F4620B730B840BE3
:10258000200D311D411DA09581F7B901842F91586F
:10259000880F9695879508959B01AC010C94B20F16
:1025A0009F3F31F0915020F4879577956795B795C7
:1025B000880F911D9695879597F9089591505040F1
:1025C000660F771F881FD2F70895AA1BBB1B51E126
:1025D00007C0AA1FBB1FA617B70710F0A61BB70B93
:1025E000881F991F5A95A9F780959095BC01CD0138
:1025F000089597FB072E16F4009407D077FD09D0B5
:102600000E94E51207FC05D03EF4909581959F4FFE
:102610000895709561957F4F0895692796276927DA
:102620007827872778270895EE0FFF1F0590F491EC
:10263000E02D099410E0CCEED0E004C0FE010E9431
:0E26400014132196CD3ED107C9F7F894FFCFB1
:10264E00EA00444A49414952554E4954000000009F
:10265E00000000803F016400000020080000000020
:10266E0028028801B5017502E601C401D8010000F7
:10267E000000E30288019502DE02A502C802B5023F
:0E268E000D0A00696E697420756172743A005D
:00000001FF
