:100000000C94ED000C9415010C9415010C94150141
:100010000C9415010C9415010C9415010C94150108
:100020000C9415010C9415010C9409050C94B3055E
:100030000C94C2040C9415010C9415010C94150138
:100040000C9478040C9415010C9446040C94200430
:100050000C9415010C9415010C9415010C941501C8
:100060000C9415010C941501084AD73B3BCE016E48
:1000700084BCBFFDC12F3D6C74319ABD56833DDAFF
:100080003D00C77F11BED9E4BB4C3E916BAAAABE0E
:10009000000000803F00324400000000000000002B
:1000A0000000000000574159504F494E54000000D5
:1000B0000000000032445F414C545F484F4C440004
:1000C00000000032445F48454144494E475F484F75
:1000D0004C444C4F495445520000000000000000C1
:1000E0000033440000000000000000000000000099
:1000F00033445F48454144494E475F484F4C445262
:1001000054480000000000000000000000004C41C6
:100110004E44000000000000000000000043415277
:1001200054455349414E00000000000043415254E1
:100130005F4C4F4954455200000000504F4C415213
:1001400000000000000000000000504F4C41525FD2
:100150004C4F4954455200000043454E5445525FB0
:10016000535449434B0000004D414E55414C000053
:10017000000000000000004D415800000000000099
:100180000000000000000000000800020100000361
:10019000040700000000000000000000000025002F
:1001A00028002B0000000000240027002A0004047F
:1001B000040404040404020202020202030303030F
:1001C00003030102040810204080010204081020EB
:1001D0000102040810206B06610611241FBECFEF38
:1001E000D8E0DEBFCDBF11E0A0E0B1E0EEECFDE273
:1001F00002C005900D92A235B107D9F724E0A2E51F
:10020000B1E001C01D92A03DB207E1F710E0CCEED5
:10021000D0E004C02197FE010E94E214CB3ED1073A
:10022000C9F70E94BC060C94DA160C940000DF9209
:10023000EF92FF920F931F93CF93DF93C82FD62F88
:10024000D72EF42E8091130490911404DC01ED91CB
:10025000FC910190F081E02D64E2099580911304F6
:1002600090911404DC01ED91FC910190F081E02D5E
:100270006DE409958091130490911404DC01ED91D3
:10028000FC910190F081E02D6CE3099580911304BD
:1002900090911404DC01ED91FC910190F081E02D2E
:1002A0006F2D09958091130490911404DC01ED9158
:1002B000FC910190F081E02D6C2F0995CF25ED2E5A
:1002C0000D2F1D2DF80161918F01C6278091130418
:1002D00090911404DC01ED91FC910190F081E02DEE
:1002E0000995802F8E198F1568F3809113049091D2
:1002F0001404DC01ED91FC910190F081E02D6C2F54
:10030000DF91CF911F910F91FF90EF90DF900994B3
:10031000AF92BF92CF92DF92EF92FF920F931F9313
:10032000CF93DF936C017B018B01040F151FEB0151
:100330005E01AE18BF08C017D10759F06991D60108
:10034000ED91FC910190F081E02DC6010995892B7A
:1003500079F7C501DF91CF911F910F91FF90EF9039
:10036000DF90CF90BF90AF900895FC01538D448DE6
:10037000252F30E0842F90E0821B930B541710F050
:10038000CF96089501970895FC01918D828D98175D
:1003900061F0A28DAE0FBF2FB11D5D968C91928D35
:1003A0009F5F9F73928F90E008958FEF9FEF089566
:1003B000FC01918D828D981731F0828DE80FF11D2F
:1003C000858D90E008958FEF9FEF0895FC01918D4A
:1003D000228D892F90E0805C9F4F821B91098F7343
:1003E0009927089589E194E00E94E60121E0892B94
:1003F00009F420E0822F089580E090E0892B29F015
:100400000E94F20181110C9400000895FC01A48D5A
:10041000A80FB92FB11DA35ABF4F2C91848D90E026
:1004200001968F739927848FA689B7892C93A08909
:10043000B1898C91837080648C93938D848D981393
:1004400006C00288F389E02D80818F7D8083089526
:10045000EF92FF920F931F93CF93DF93EC0181E014
:10046000888F9B8D8C8D98131AC0E889F9898081BB
:1004700085FF15C09FB7F894EE89FF896083E889EE
:10048000F98980818370806480839FBF81E090E0E0
:10049000DF91CF911F910F91FF90EF900895F62E6D
:1004A0000B8D10E00F5F1F4F0F731127E02E8C8D07
:1004B0008E110CC00FB607FCFACFE889F98980814C
:1004C00085FFF5CFCE010E940602F1CFEB8DEC0F38
:1004D000FD2FF11DE35AFF4FF0829FB7F8940B8F69
:1004E000EA89FB8980818062CFCFCF93DF93EC01D3
:1004F000888D8823B9F0AA89BB89E889F9898C910C
:1005000085FD03C0808186FD0DC00FB607FCF7CFC7
:100510008C9185FFF2CF808185FFEDCFCE010E94C7
:100520000602E9CFDF91CF9108952FB7F89460913B
:10053000F1017091F2018091F3019091F4012FBFCC
:1005400008955091F6014091F501842F90E0252FF8
:1005500030E0541718F4821B930B08958C5B9F4F67
:10056000FACF5091F9014091F801852F90E0242FA6
:1005700030E0541718F0821B930B0895805B9F4F57
:10058000FACF8091F901E091F8018E1751F0EF5FF9
:10059000E03508F0E0E0F0E0E456FE4F808190E0C6
:1005A00008958FEF9FEF08958091F9019091F801E0
:1005B000891769F09F5F903508F090E0E92FF0E02F
:1005C000E456FE4F80819093F80190E008958FEFFC
:1005D0009FEF08958091F7018111FCCF08958091DC
:1005E000F6018F5F843408F080E09091F501981750
:1005F000E1F32FB7F8949091F701992359F0E82F80
:10060000F0E0EE5AFE4F60838093F6012FBF81E049
:1006100090E0089581E08093F70160939701109234
:10062000960182E086BB80916F00826080936F00AC
:10063000809180008F7B806880938000809184000F
:100640009091850040969093890080938800DECF3A
:1006500042E050E063E471E089E194E00C948801A9
:10066000CF93DF93682F89E194E00E942802EC0188
:100670000E9428038C0F9D1FDF91CF910895CF9387
:10068000DF93EC0188819981009711F00E94841515
:10069000198218821D821C821B821A82DF91CF91DF
:1006A00008950F931F93CF93DF93EC018881998175
:1006B000009759F02A813B812617370730F081E0F7
:1006C000DF91CF911F910F9108958B016F5F7F4F45
:1006D0000E940D16009759F0998388831B830A8323
:1006E0002C813D81232B59F7FC011082E8CF80E05B
:1006F000E7CFEF92FF920F931F93CF93DF93EC011D
:100700008617970781F0FB01008111810115110502
:1007100039F0E480F580B7010E94510381110BC0CC
:10072000CE010E943F03CE01DF91CF911F910F9127
:10073000FF90EF900895FD82EC82B8018881998145
:100740000E94D316F0CFCF92DF92EF92FF920F93D9
:100750001F93CF93DF93CDB7DEB72E970FB6F894E4
:10076000DEBF0FBECDBF7C01CB01BA012AE0AE01D6
:100770004F5F5F4F6A010E94AE10F60101900020AA
:10078000E9F73197EC19FD09D9F0D70114960D91CD
:100790001C910E0F1F1FB801C7010E94510388232F
:1007A000F9F0F7012081318184819581B601820FB2
:1007B000931F0E94D316D70115961C930E9314977E
:1007C000C7012E960FB6F894DEBF0FBECDBFDF91E6
:1007D000CF911F910F91FF90EF90DF90CF900895F0
:1007E000C7010E943F03ECCFCF93DF93CDB7DEB7B5
:1007F0002F970FB6F894DEBF0FBECDBF8091BA041D
:100800009091BB042FE0289FB001299F700D112407
:100810006A567F4FCE0101960E94A7108FE0FE011D
:100820003196A3E0B1E001900D928A95E1F72F9601
:100830000FB6F894DEBF0FBECDBFDF91CF91089504
:100840001F920F920FB60F9211242F933F934F9345
:100850005F936F937F938F939F93AF93BF93EF9328
:10086000FF9389E194E00E940602FF91EF91BF910E
:10087000AF919F918F917F916F915F914F913F9138
:100880002F910F900FBE0F901F9018951F920F92EF
:100890000FB60F9211242F938F939F93EF93FF9393
:1008A000E0912904F0912A048081E0912F04F091D5
:1008B000300482FD1BC09081809132048F5F8F7362
:1008C00020913304821741F0E0913204F0E0E75EBA
:1008D000FB4F958F80933204FF91EF919F918F9101
:1008E0002F910F900FBE0F901F9018958081F4CF1D
:1008F0001F920F920FB60F9211242F933F938F9355
:100900009F93AF93BF938091F1019091F201A091D9
:10091000F301B091F4013091F00123E0230F2D3762
:1009200058F50196A11DB11D2093F0018093F101AE
:100930009093F201A093F301B093F4018091EC0144
:100940009091ED01A091EE01B091EF010196A11DF2
:10095000B11D8093EC019093ED01A093EE01B09353
:10096000EF01BF91AF919F918F913F912F910F9088
:100970000FBE0F901F90189526E8230F0296A11D19
:10098000B11DD2CF1F920F920FB60F9211242F9349
:100990008F939F93EF93FF9380916F008B7F809352
:1009A0006F00809181008F7B809381008091FA019C
:1009B00020919B01205890919A01893020F49695BE
:1009C000922B8F5FFACF90939A018091F9018F5FFC
:1009D000803508F080E02091F801281739F0E82FE1
:1009E000F0E0E456FE4F90838093F9011092FA01F3
:1009F000809181008F7B8093810010929B01FF91F9
:100A0000EF919F918F912F910F900FBE0F901F909C
:100A100018951F920F920FB60F9211242F933F93A8
:100A20004F935F936F937F938F939F93AF93BF93F6
:100A3000EF93FF93809186009091870040919B01F6
:100A4000209181004423F1F12F7B209381001092AB
:100A50009B013091FA0131113CC0411122C020911B
:100A6000FB013091FC01280F391F30938B0020933C
:100A70008A0024E026BB20916F00246020936F0041
:100A80002091FD013091FE01820F931F369527952D
:100A9000280F391F309399012093980181E08093AA
:100AA000FA01FF91EF91BF91AF919F918F917F914B
:100AB0006F915F914F913F912F910F900FBE0F90CB
:100AC0001F90189520642093810020E820939B01BB
:100AD000C0CF40919801509199016091FD017091B2
:100AE000FE01DB01A095B095E0919B0120919A0158
:100AF000841B950BA817B90768F126952E2B460F76
:100B0000571F3F5F861B970B3930A0F320939A0144
:100B100080916F008B7F80936F008091F9018F5FD0
:100B2000803508F080E09091F801981749F0E82F9F
:100B3000F0E090919A01E456FE4F90838093F90182
:100B4000809181008F7B8093810010929B01109295
:100B5000FA01A7CF20939A015093990140939801ED
:100B60003093FA019ECF1F920F920FB60F9211246D
:100B70002F933F934F935F936F937F938F939F93A5
:100B8000EF93FF932091F701609197018091880086
:100B9000909189004091FD015091FE0130919601A4
:100BA0002A3070F5840F951F762F7170293009F463
:100BB00071E066952F5F371799F3309180007723A6
:100BC000E1F0306C3093800090938900809388002E
:100BD00070939601609397012093F701FF91EF9135
:100BE0009F918F917F916F915F914F913F912F9145
:100BF0000F900FBE0F901F9018953F7B3068E2CF8B
:100C00003091F601E091F5013E1319C02A3051F4FC
:100C10002BE02093F701840F951F90938900809318
:100C20008800DCCF1092F701809180008F73809351
:100C3000800080916F008D7F80936F00CFCFEF5F3A
:100C4000E43408F0E0E0E093F501F0E0EE5AFE4F06
:100C500030813093970110929601309180003F7B54
:100C60003068309380002A3071F42091FD0130917A
:100C7000FE01820F931F909389008093880081E08A
:100C80008093F701ABCF80918400909185004096CE
:100C9000F2CF80916F008B7F80936F0080916F0007
:100CA0008F7D80936F008091F8018093F90180918E
:100CB000F7018111FCCF80916F008D7F80936F00D1
:100CC00008950E94490685E391E09093C1048093C2
:100CD000C0040C944906E9E1F4E01382128288EE24
:100CE00093E0A0E0B0E084839583A683B78323E2FA
:100CF00031E03183208325EC30E03587248724ECF4
:100D000030E03787268720EC30E0318B208B21ECD8
:100D100030E0338B228B22EC30E0358B248B26ECB9
:100D200030E0378B268B118E128E138E148EE0ECF2
:100D3000F4E01382128284839583A683B78385E3CC
:100D400091E0918380838091170190911801909395
:100D5000BF048093BE048091BA049091BB04A0911B
:100D6000BC04B091BD048093B6049093B704A093E3
:100D7000B804B093B9040895CF93DF93CDB7DEB72D
:100D80002E970FB6F894DEBF0FBECDBF789484B512
:100D9000826084BD84B5816084BD85B5826085BD77
:100DA00085B5816085BD80916E00816080936E0005
:100DB00010928100809181008260809381008091F7
:100DC00081008160809381008091800081608093A8
:100DD00080008091B10084608093B1008091B00068
:100DE00081608093B00080917A00846080937A0063
:100DF00080917A00826080937A0080917A0081608D
:100E000080937A0080917A00806880937A001092B3
:100E1000C1004AE050E066E471E089E194E00E949C
:100E200088010E94280310926F001092800081E8D0
:100E30008093810086E191E09093FE018093FD0113
:100E40008BE09AE09093FC018093FB01EAECF1E0E7
:100E50002491E6EBF1E084918823C9F090E0880FBB
:100E6000991FFC01EC55FE4F45915491FC01E6564B
:100E7000FE4FA591B4919FB7F894FA013081822F6B
:100E8000809583238083EC912E2B2C939FBFEFE8DA
:100E9000F1E024914BEC51E0FA01349187EB91E0C1
:100EA000FC0164916623D9F0222359F0233009F420
:100EB0004CC208F03FC2213009F44DC2223009F47F
:100EC0004EC2E62FF0E0EE0FFF1FE656FE4FA59153
:100ED000B4912FB7F8946C91362B3C932FBFFA0145
:100EE0004491FC018491882399F090E0880F991F28
:100EF000FC01EC55FE4FA591B491FC01E656FE4F66
:100F0000859194918FB7F8949C91492B4C938FBF06
:100F10001092FA011092F9011092F8011092F70163
:100F20001092F6011092F50180E286BB80936F006B
:100F300010926702109203020E9495026093FF01D3
:100F4000709300028093010290930202E8E6F2E0BF
:100F500081E6DF011D928A95E9F7E0912904F0917D
:100F60002A0482E08083E0912504F0912604108217
:100F7000E0912704F091280480E1808310923104ED
:100F8000E0912D04F0912E0486E08083E0912B0403
:100F9000F0912C04808180618083E0912B04F0919A
:100FA0002C04808188608083E0912B04F0912C04D4
:100FB000808180688083E0912B04F0912C048081F3
:100FC0008F7D808389E194E09093140480931304CF
:100FD00084EF91E0A0E0B0E08093150490931604B4
:100FE000A0931704B093180411E080EC94E00E94E1
:100FF000B102892B09F4DCC180EC94E00E94D40298
:1010000090916702913009F4C3C108F4B5C19230E0
:1010100009F4C2C1933009F4C3C1E92FF0E0EC5FD9
:10102000FD4F80839F35E0F4209165023091660288
:101030008327382F3295332E282E2326A101407F77
:101040005F70BA01660F771F352F3627232E2826AB
:10105000822F8427382E372630926602209265022E
:101060009F5F90936702913608F4BFCF209163028F
:1010700030916402809165029091660228173907C9
:1010800009F092C181E6E4E0F2E0A8E6B2E0019066
:101090000D928A95E1F760916802709169028091E2
:1010A0006A0290916B020E94DB1460936802709355
:1010B000690280936A0290936B0260917002709152
:1010C000710280917202909173020E94DB1460930E
:1010D00070027093710280937202909373028091F8
:1010E000740290917502982789279827909375022A
:1010F00080937402809176029091770298278927D5
:10110000982790937702809376028091780290914D
:1011100079029827892798279093790280937802FB
:1011200080917A0290917B02982789279827909343
:101130007B0280937A0280917C0290917D029827B5
:101140008927982790937D0280937C0280917E026C
:1011500090917F0298278927982790937F02809308
:101160007E0280918002909181029827892798279A
:1011700090938102809380028091820290918302F9
:1011800098278927982790938302809382028091E1
:101190008402909185029827892798279093850249
:1011A00080938402809186029091870298278927F4
:1011B000982790938702809386028091880290916D
:1011C000890298278927982790938902809388021B
:1011D00080918A0290918B02982789279827909373
:1011E0008B0280938A0280918C0290918D029827C5
:1011F0008927982790938D0280938C0280918E028C
:1012000090918F0298278927982790938F02809337
:101210008E028091900290919102982789279827B9
:101220009093910280939002809192029091930208
:101230009827892798279093930280939202809110
:101240009402909195029827892798279093950268
:1012500080939402609198027091990280919A0211
:1012600090919B020E94DB14609398027093990204
:1012700080939A0290939B0260919C0270919D02D0
:1012800080919E0290919F020E94DB1460939C02C9
:1012900070939D0280939E0290939F026091A002A2
:1012A0007091A1028091A2029091A3020E94DB148E
:1012B0006093A0027093A1028093A2029093A30274
:1012C0008091A4029091A50298278927982790934E
:1012D000A5028093A4028091A6029091A70298276C
:1012E000892798279093A7028093A6026091A8026D
:1012F0007091A9028091AA029091AB020E94DB1426
:101300006093A8027093A9028093AA029093AB0203
:10131000109303020E9495026093FF0170930002F4
:1013200080930102909302026EE289E194E00E94B0
:10133000280224C02730B1F02830D1F0243009F041
:10134000C0CD209180002F7D03C0209180002F7799
:1013500020938000B6CD24B52F7724BDB2CD24B51F
:101360002F7DFBCF2091B0002F772093B000A9CD27
:101370002091B0002F7DF9CF803B19F010926702C9
:1013800034CEEFEFFFEFF0936602E093650245CEB7
:101390008E3109F442CEF2CF8E3D09F43ECEEECF2F
:1013A0008D3A09F43ACEEACF8AE20E943003E6CFC2
:1013B000809103028823C1F00E949502C090FF0132
:1013C000D0900002E0900102F09002026C197D09B9
:1013D0008E099F09693B7B408105910528F0109299
:1013E000030281E20E94300380918602909187027D
:1013F0006AE070E00E94C71460930904E0908E02D6
:101400004AE0E49E900111243E872D873093C40367
:101410002093C3036091A4027091A50290E080E044
:101420000E94FC1060939C0370939D0380939E0325
:1014300090939F03809194029091950290939003D2
:1014400080938F0380917A0290917B0290938E0318
:1014500080938D0380917C0290917D02909386030E
:10146000809385036091760270917702072E000CBD
:10147000880B990B0E94FE1060937703709378039A
:101480008093790390937A032091700230917102D6
:101490004091720250917302AAE0B0E00E943A12A9
:1014A0006093A0037093A1038093A2039093A3037E
:1014B0008091980290919902A0919A02B0919B021A
:1014C0008093040490930504A0930604B09307044A
:1014D00080919C0290919D02A0919E02B0919F02EA
:1014E0008093000490930104A0930204B09303043A
:1014F0008091A8029091A902A091AA02B091AB029A
:101500008093F3039093F403A093F503B093F60351
:101510008091AD028093FF03853030F0873008F072
:1015200013C582E0809308048091AE0290E0B0E0A1
:10153000A0E08093BA049093BB04A093BC04B09342
:10154000BD042091960230E0AFEFB3E00E949E12FE
:1015500024E630E040E050E00E941B123093C603C6
:101560002093C5030E94950280900F049090100470
:10157000A0901104B09012049B01AC012819390904
:101580004A095B0949015A0134E683169104A10412
:10159000B10408F425C460930F0470931004809381
:1015A0001104909312048091FB039091FC03A0918D
:1015B000FD03B091FE030097A105B10509F4C6C46F
:1015C0004090F7035090F8036090F9037090FA038D
:1015D000411451046104710409F4B8C480900404F6
:1015E00090900504A0900604B0900704BC01CD01C2
:1015F000681979098A099B090E94FE104B015C0158
:101600008091000490910104A0910204B091030420
:10161000A3019201281B390B4A0B5B0BCA01B901CC
:101620000E94FE102091120130911301409114018B
:10163000509115010E945D112B013C01A5019401FF
:10164000C501B4010E945D116B017C01A3019201EF
:10165000C301B2010E945D119B01AC01C701B6013B
:101660000E94AE120E946E142CE23DE74EE85FE34A
:101670000E945D110E9405146B017C01C501B4013B
:101680009058A30192010E942D1320EA3CE043EB05
:1016900055E40E945D1120E030EA4CE056E40E94DF
:1016A000AE120E94FE134B015C01B7FE06C030EA89
:1016B000830E3CE8931EA11CB11CC701B60124E6B1
:1016C00030E040E050E00E947C1220939803309379
:1016D000990340939A0350939B03C501B40124E6F8
:1016E00030E040E050E00E941B12309392032093C0
:1016F00091030E9495020E94FC102091CD0230912E
:10170000CE024091CF025091D0020E94AD124B0107
:101710005C014D855E85BA01550F880B990B0E94BF
:10172000FE1020E030E040E251E40E945D119B0198
:10173000AC01C501B4010E945D1120E03AEB4BE51C
:101740005AE40E948C132091C9023091CA02409140
:10175000CB025091CC020E94AE126093C9027093EA
:10176000CA028093CB029093CC020E94051470931E
:10177000C2036093C1030E9495020E94FC10609313
:10178000CD027093CE028093CF029093D00200914D
:10179000160160910B0470910C0480910D049091DE
:1017A0000E0424E833E040E050E00E947C12672BF6
:1017B000682B692B09F0D7C3013009F0D4C380919D
:1017C000BE049091BF04813D974080F08091170145
:1017D000909118012091000130910101309318017E
:1017E0002093170190930101809300018FE0E3E0C3
:1017F000F1E0A4EEB3E001900D928A95E1F74FE09D
:1018000064EE73E08AE00E94170181E090E0A0E0BE
:10181000B0E08093D4039093D503A093D603B09304
:10182000D70346E16EEC73E085E60E9417018091D4
:1018300009048093C7038091C5039091C6039093D8
:10184000CB038093CA038091C3039091C403909308
:10185000CD038093CC038091C1039091C2039093F8
:10186000C9038093C80347E067EC73E08EE60E94EB
:1018700017018091C3039091C4039093BD0380939B
:10188000BC0380910904AAE08A9FC00111249093AF
:10189000C0038093BF038091C1039091C2039093D2
:1018A000BB038093BA0380910A048093B60380E55A
:1018B00094E19093B8038093B7031092BE036091B4
:1018C0000B0470910C0480910D0490910E0420E99A
:1018D00031E040E050E00E947C12672B682B692BBE
:1018E00009F0A9C080910201882309F453C3188626
:1018F0001F821A8619861C861B8670E060E0CE0166
:1019000007960E945103811139C3CE0107960E94A8
:101910003F03609100047091010480910204909152
:10192000030497FF07C090958095709561957F4F50
:101930008F4F9F4F2AE030E040E050E00E941B12A2
:1019400069017A0160910404709105048091060494
:101950009091070497FF07C09095809570956195C9
:101960007F4F8F4F9F4F2AE030E040E050E00E94D1
:101970001B1249015A011A8219821C821B821E8283
:101980001D82BE01695F7F4FCE0101960E947903DF
:10199000B501A401CE0101960E94A303B701A601DF
:1019A0000E94A303BC01CE0107960E94790389819E
:1019B0009A81009711F00E94841590900201A92C41
:1019C000B12CF5013197CB84DC84EF80F884EC15E1
:1019D000FD0528F4EE0DFF1DE114F10421F4109231
:1019E000D102E1EDF2E080818983AC14BD0430F4D2
:1019F000F701EA0DFB1DE114F10421F41092D1026C
:101A0000E1EDF2E080818A83CE0101960E94891087
:101A10008093B903B2E0CB1AD108CA14DB0408F4EE
:101A2000B6C29394939490920201E114F10419F0D8
:101A3000C7010E9484154BE066EB73E082E80E94C8
:101A400017018091040490910504A0910604B091BF
:101A500007048093A6039093A703A093A803B093D1
:101A6000A9038091000490910104A0910204B09117
:101A700003048093AA039093AB03A093AC03B093A9
:101A8000AD038091FF038093A5038091A003909103
:101A9000A1039093AF038093AE0360919C03709178
:101AA0009D0380919E0390919F030E94FE1370936B
:101AB000B1036093B00342E164EA73E08AE60E94F6
:101AC00017018091980390919903909394038093C8
:101AD0009303809191039091920320918F03309111
:101AE0009003821B930B909396038093950345E09C
:101AF00063E973E08BE60E94170180918D0390915A
:101B00008E0390938A03809389038091850390913B
:101B10008603909388038093870346E067E873E029
:101B20008CE60E9417018091A0039091A103A091DF
:101B3000A203B091A30380937B0390937C03A093B3
:101B40007D03B0937E0320E030E048EC52E46091E6
:101B50007703709178038091790390917A030E94C2
:101B60005D110E94FE137093800360937F034AE02F
:101B70006BE773E08DE60E9417011092D40288E3B0
:101B80008093D90288E180934E0382E090E09093A5
:101B900068038093670380E180936F03109374035D
:101BA000109375031092760380E098E09093DD0225
:101BB0008093DC0289E198E09093DF028093DE025B
:101BC0008AEE90E09093E1028093E0029093E3022A
:101BD0008093E2029093E5028093E4029093E702FF
:101BE0008093E6029093E9028093E8029093EB02DF
:101BF0008093EA022EEE39E03093ED022093EC025E
:101C00009093EF028093EE029093F1028093F002A2
:101C100027E338E03093F3022093F2022AE538E01C
:101C20003093F5022093F40220EE38E03093F7026F
:101C30002093F60220911701309118013093F90298
:101C40002093F80229EF38E03093FB022093FA0248
:101C50009093FD028093FC029093FF028093FE021A
:101C600090930103809300039093030380930203F6
:101C700090930503809304039093070380930603D6
:101C8000909309038093080323E939E030930B0311
:101C900020930A0323E739E030930D0320930C03CC
:101CA00090930F0380930E0390931103809310037E
:101CB000909313038093120390931503809314035E
:101CC00090931703809316032EE038E030931903A6
:101CD000209318032FE038E030931B0320931A035E
:101CE00090931D0380931C032BE139E030931F0375
:101CF00020931E039093210380932003909323034A
:101D000080932203909325038093240390932703C9
:101D100080932603909329038093280390932B03A9
:101D200080932A0390932D0380932C0390932F0389
:101D300080932E0390933103809330039093330369
:101D40008093320390933503809334039093370349
:101D500080933603909339038093380390933B0329
:101D600080933A0390933D0380933C0390933F0309
:101D700080933E03909341038093400390934303E9
:101D800080934203909345038093440390934703C9
:101D900080934603909349038093480390934B03A9
:101DA00080934A0390934D0380934C0345EA62ED80
:101DB00072E084E50E94170180910B0490910C045D
:101DC000A0910D04B0910E048C599F4FAF4FBF4F9F
:101DD00080930B0490930C04A0930D04B0930E0415
:101DE0008091BA049091BB04A091BC04B091BD0451
:101DF0004091B6045091B7046091B8047091B90451
:101E000084179507A607B70751F08093B6049093FF
:101E1000B704A093B804B093B9040E94F40380916E
:101E20000A04811109C080910904882329F08B32AA
:101E300008F0B6C010930A0460910B0470910C0472
:101E400080910D0490910E0420E137E240E050E0D3
:101E50000E947C12672B682B692B11F40E94F403FB
:101E600080910804833008F427C1809116018130E5
:101E700009F022C160910404709105048091060468
:101E800090910704611571058105910509F414C14C
:101E9000C0900004D0900104E0900204F09003048C
:101EA000C114D104E104F10409F406C12091FF0337
:101EB000263008F401C16093FB037093FC03809308
:101EC000FD039093FE03C092F703D092F803E092D3
:101ED000F903F092FA030E94FE109F7720E836E99A
:101EE00048E15BE40E948C1325E33AEF4EE85CE3A3
:101EF0000E945D112BED3FE049EC5FE30E94AE12C2
:101F00006B017C010E94FE13605E7F4F8F4F9F4FDD
:101F1000613471058105910508F0F7C02BED3FE0B4
:101F200049E450E4C701B6010E945B1418160CF096
:101F30004EC02BED3FE049EC50E4C701B6010E94D2
:101F4000AD126B017C01EACF83E0ECCA10929803DA
:101F50001092990310929A0310929B03109292038D
:101F600010929103C6CB011141CC8091BE04909197
:101F7000BF04909318018093170138CC1C861B86F0
:101F800065E471E08F8198850E94D316C2CC1092CF
:101F900002014BCD8FEF8093B903109302014BCD1B
:101FA000853520F482E080930A0446CF8F3710F401
:101FB00083E0F9CF893A10F484E0F5CF833D10F443
:101FC00085E0F1CF8F3F09F437CF86E0ECCF2BEDE2
:101FD0003FE049E450ECC701B6010E94F71087FFCB
:101FE0000BC02BED3FE049EC50E4C701B6010E9465
:101FF000AE126B017C01EBCF2BED3FE049EC5FE3D0
:10200000C701B6010E945B1418160CF065C02BEDD9
:102010003FE049EC5FE3C701B6010E94AD129B01AE
:10202000AC016BED7FE089EC9FE30E94AD126B0188
:102030007C01A7019601C701B6010E945D114B0109
:102040005C0120E030E0A9010E945D1122E937EE39
:1020500041E459E30E94AD12A50194010E945D1173
:1020600027E930E348E05CE30E94AE12A501940149
:102070000E945D1125E138EA4AE25EE30E94AD125A
:102080002B013C01A5019401C701B6010E945D111D
:102090009B01AC01C301B2010E945D11A701960131
:1020A0000E94AE1260931201709313018093140189
:1020B000909315011092160180E090E0892B11F4A5
:1020C0000C94F5070E94F201882311F40C94F40794
:1020D0000E9400000C94F4072BED3FE049EC5FEB0D
:1020E000C701B6010E94F71087FFA3CF2BED3FE099
:1020F00049EC5FE3C701B6010E94AE129B01AC013F
:102100006BED7FE089EC9FEB90CF60E070E0CB015E
:10211000C9CFFC0188279927E89421912032E9F35F
:10212000293010F02E30C8F32B3241F02D3239F423
:10213000689404C00E94BD10820F911D219120530C
:102140002A30C0F31EF4909581959F4F0895FB01AE
:10215000DC0105900D920020E1F70895BB272A309D
:1021600051F4992342F4BDE2909580957095619564
:102170007F4F8F4F9F4F0C94C6107AE0979F902D02
:10218000879F802D910D11240895BB27FA01A62F5A
:102190006217710581059105330B30FB66F0AA27A4
:1021A000660F771F881F991FAA1FA21710F0A21B86
:1021B00063953850A9F7A05DAA3308F0A95DA193F3
:1021C00036F7B111B1931082CA010C94E710DC010B
:1021D000FC01672F71917723E1F7329704C07C915E
:1021E0006D9370836291AE17BF07C8F308950E9484
:1021F000391108F481E00895E89409C097FB3EF492
:1022000090958095709561957F4F8F4F9F4F992343
:10221000A9F0F92F96E9BB279395F69587957795C1
:102220006795B795F111F8CFFAF4BB0F11F460FF81
:102230001BC06F5F7F4F8F4F9F4F16C0882311F0D9
:1022400096E911C0772321F09EE8872F762F05C0ED
:10225000662371F096E8862F70E060E02AF09A9588
:10226000660F771F881FDAF7880F9695879597F97D
:102270000895990F0008550FAA0BE0E8FEEF161617
:102280001706E807F907C0F012161306E407F5076A
:1022900098F0621B730B840B950B39F40A2661F0DE
:1022A000232B242B252B21F408950A2609F4A14081
:1022B000A6958FEF811D811D08950E9470110C94C9
:1022C000E1110E94D31138F00E94DA1120F0952319
:1022D00011F00C94CA110C94D01111240C94151205
:1022E0000E94F21170F3959FC1F3950F50E0551FB6
:1022F000629FF001729FBB27F00DB11D639FAA275B
:10230000F00DB11DAA1F649F6627B00DA11D661FA9
:10231000829F2227B00DA11D621F739FB00DA11DCA
:10232000621F839FA00D611D221F749F3327A00D84
:10233000611D231F849F600D211D822F762F6A2F20
:1023400011249F5750409AF0F1F088234AF0EE0F85
:10235000FF1FBB1F661F771F881F91505040A9F7B2
:102360009E3F510580F00C94CA110C9415125F3FEA
:10237000E4F3983ED4F3869577956795B795F795EE
:10238000E7959F5FC1F7FE2B880F911D9695879566
:1023900097F9089597F99F6780E870E060E00895E5
:1023A0009FEF80EC089500240A941616170618066D
:1023B0000906089500240A94121613061406050649
:1023C0000895092E0394000C11F4882352F0BB0FDA
:1023D00040F4BF2B11F460FF04C06F5F7F4F8F4F3D
:1023E0009F4F089557FD9058440F551F59F05F3F78
:1023F00071F04795880F97FB991F61F09F3F79F027
:1024000087950895121613061406551FF2CF4695A8
:10241000F1DF08C0161617061806991FF1CF86952A
:102420007105610508940895E894BB27662777270E
:10243000CB0197F90895052E97FB1EF400940E9496
:10244000321257FD07D00E947C1207FC03D04EF4D5
:102450000C94321250954095309521953F4F4F4F37
:102460005F4F089590958095709561957F4F8F4F40
:102470009F4F08950E949E12A59F900DB49F900DAE
:10248000A49F800D911D112408952F923F924F9289
:102490005F926F927F928F929F92AF92BF92CF92F4
:1024A000DF92EF92FF920F931F93CF93DF93CDB7FD
:1024B000DEB7CA1BDB0B0FB6F894DEBF0FBECDBF75
:1024C00009942A88398848885F846E847D848C8446
:1024D0009B84AA84B984C884DF80EE80FD800C814F
:1024E0001B81AA81B981CE0FD11D0FB6F894DEBF32
:1024F0000FBECDBFED010895A1E21A2EAA1BBB1B92
:10250000FD010DC0AA1FBB1FEE1FFF1FA217B307BF
:10251000E407F50720F0A21BB30BE40BF50B661FD5
:10252000771F881F991F1A9469F760957095809599
:1025300090959B01AC01BD01CF010895A29FB00110
:10254000B39FC001A39F700D811D1124911DB29FE7
:10255000700D811D1124911D08955058BB27AA2785
:102560000E94C5120C94E1110E94D31138F00E9410
:10257000DA1120F039F49F3F19F426F40C94D011AD
:102580000EF4E095E7FB0C94CA11E92F0E94F211BA
:1025900058F3BA17620773078407950720F079F498
:1025A000A6F50C9414120EF4E0950B2EBA2FA02D64
:1025B0000B01B90190010C01CA01A0011124FF27F0
:1025C000591B99F0593F50F4503E68F11A16F040EB
:1025D000A22F232F342F4427585FF3CF46953795EA
:1025E0002795A795F0405395C9F77EF41F16BA0BAF
:1025F000620B730B840BBAF09150A1F0FF0FBB1F5D
:10260000661F771F881FC2F70EC0BA0F621F731FA5
:10261000841F48F4879577956795B795F7959E3F02
:1026200008F0B0CF9395880F08F09927EE0F979593
:10263000879508950E94D31160F080E891E009F435
:102640009EEF0E94DA1128F040E851E071F45EEF4D
:102650000CC00C94D0110C941412E92FE0780E9455
:10266000F21140F3092E052AB1F326173707480760
:10267000590738F00E2E07F8E02569F0E025E064F0
:102680000AC0EF6307F8009407FADB01B9019D0166
:10269000DC01CA01AD01EF930E94A3130E94E11176
:1026A0000E945D135F91552339F02BED3FE049E423
:1026B00050FD49EC0C94AE120895DF93DD27B92F3D
:1026C000BF7740E85FE31616170648075B0718F464
:1026D000D92F0E9460149F938F937F936F930E94D2
:1026E000AE14E8E6F0E00E9434140E94E1112F914C
:1026F0003F914F915F910E947011DD2351F09058EE
:10270000A2EA2AED3FE049EC5FE3D0785D270E9422
:10271000C512DF910C94E1110E94A0130C94E111F9
:102720000E94DA1158F00E94D31140F029F45F3F63
:1027300029F00C94CA1151110C9415120C94D0115B
:102740000E94F21168F39923B1F3552391F3951B7D
:10275000550BBB27AA2762177307840738F09F5FC2
:102760005F4F220F331F441FAA1FA9F335D00E2E2F
:102770003AF0E0E832D091505040E695001CCAF79C
:102780002BD0FE2F29D0660F771F881FBB1F26175F
:1027900037074807AB07B0E809F0BB0B802DBF0136
:1027A000FF2793585F4F3AF09E3F510578F00C9405
:1027B000CA110C9415125F3FE4F3983ED4F386954A
:1027C00077956795B795F7959F5FC9F7880F911D26
:1027D0009695879597F90895E1E0660F771F881F12
:1027E000BB1F621773078407BA0720F0621B730BC5
:1027F000840BBA0BEE1F88F7E09508950E9405142C
:102800006894B1110C94151208950E94FA1188F081
:102810009F5798F0B92F9927B751B0F0E1F0660FA4
:10282000771F881F991F1AF0BA95C9F714C0B130E5
:1028300091F00E941412B1E008950C941412672FC5
:10284000782F8827B85F39F0B93FCCF38695779514
:102850006795B395D9F73EF49095809570956195FD
:102860007F4F8F4F9F4F0895DF93CF931F930F9309
:10287000FF92EF92DF927B018C01689406C0DA2E02
:10288000EF010E947011FE01E894A5912591359108
:1028900045915591A6F3EF010E94C512FE019701E3
:1028A000A801DA9469F7DF90EF90FF900F911F91E4
:1028B000CF91DF9108950E94391108F48FEF0895A8
:1028C0009B01AC0160E070E080E89FE30C948C1306
:1028D00019F416F40C94D0110C94B2140E94FA114D
:1028E000B8F39923C9F3B6F39F57550B87FF0E949E
:1028F000C0140024A0E640EA9001805856959795B0
:1029000028F4805C660F771F881F20F02617370792
:10291000480730F4621B730B840B202931294A2BA2
:10292000A69517940794202531254A2758F7660F56
:10293000771F881F20F026173707480730F4620BEF
:10294000730B840B200D311D411DA09581F7B9013A
:10295000842F9158880F9695879508959B01AC0117
:102960000C945D119F3F31F0915020F4879577953D
:102970006795B795880F911D9695879597F9089556
:1029800091505040660F771F881FD2F70895AA1BF9
:10299000BB1B51E107C0AA1FBB1FA617B70710F04A
:1029A000A61BB70B881F991F5A95A9F7809590957C
:1029B000BC01CD01089569279627692778278727C5
:1029C00078270895EE0FFF1F0590F491E02D0994EC
:1029D0000F931F93CF93DF938230910510F482E021
:1029E00090E0E091CE04F091CF0430E020E0B0E040
:1029F000A0E0309799F42115310509F44AC0281B4D
:102A0000390B24303105D8F58A819B816115710518
:102A100089F1FB0193838283FE0111C040815181C2
:102A20000281138148175907E0F04817590799F4B4
:102A3000109761F012960C93129713961C9332968E
:102A4000CF01DF91CF911F910F9108950093CE0494
:102A50001093CF04F4CF2115310551F042175307DD
:102A600038F0A901DB019A01BD01DF01F801C1CFF6
:102A7000EF01F9CF9093CF048093CE04CDCFFE0128
:102A8000E20FF31F819391932250310939832883F8
:102A9000D7CF2091CC043091CD04232B41F4209149
:102AA0001B0130911C013093CD042093CC04209164
:102AB000190130911A012115310541F42DB73EB7A6
:102AC00040911D0150911E01241B350BE091CC0457
:102AD000F091CD04E217F307A0F42E1B3F0B28174B
:102AE000390778F0AC014E5F5F4F2417350748F087
:102AF0004E0F5F1F5093CD044093CC04819391936C
:102B00009FCFF0E0E0E09CCFCF93DF930097E9F018
:102B1000FC01329713821282A091CE04B091CF04AF
:102B2000ED0130E020E01097A1F420813181820F87
:102B3000931F2091CC043091CD042817390709F058
:102B400061C0F093CD04E093CC04DF91CF91089560
:102B5000EA01CE17DF07E8F54A815B819E01411546
:102B60005105B1F7E901FB83EA8349915991C40FFB
:102B7000D51FEC17FD0761F4808191810296840FC7
:102B8000951FE90199838883828193819B838A833E
:102B9000F0E0E0E012968D919C9113970097B9F5C3
:102BA0002D913C911197CD010296820F931F209198
:102BB000CC043091CD042817390739F6309751F5F8
:102BC0001092CF041092CE04B093CD04A093CC0405
:102BD000BCCFD383C28340815181840F951FC81716
:102BE000D90761F44E5F5F4F88819981480F591F63
:102BF000518340838A819B81938382832115310590
:102C000009F0B0CFF093CF04E093CE049ECFFD0146
:102C1000DC01C0CF13821282D7CFB0E0A0E0E3E1A5
:102C2000F6E10C9447128C01009751F4CB010E94FD
:102C3000E8148C01C801CDB7DEB7E0E10C94631253
:102C4000FC01E60FF71F9C0122503109E217F30740
:102C500008F49DC0D901CD91DC911197C617D70713
:102C600098F0C530D10530F3CE0104978617970749
:102C700008F3C61BD70B2297C193D1936D937C9316
:102C8000CF010E948415D6CF5B01AC1ABD0A4C015E
:102C90008C0E9D1EA091CE04B091CF04512C412CDE
:102CA000F12CE12C109731F58091CC049091CD045A
:102CB0008815990509F05CC04616570608F058C0FB
:102CC0008091190190911A01009741F48DB79EB738
:102CD00040911D0150911E01841B950BE817F907C7
:102CE00008F055C0F093CD04E093CC04F901718352
:102CF0006083A0CF8D919C91119712966C90129742
:102D000013967C901397A815B90559F56C0142E00C
:102D1000C40ED11CCA14DB0420F1AC014A195B09B2
:102D2000DA011296159780F0628273825183408394
:102D3000D9016D937C93E114F10471F0D7011396DE
:102D4000FC93EE93129776CF22968C0F9D1FF9017C
:102D500091838083F301EFCFF093CF04E093CE040F
:102D600069CF4816590608F42C017D01D3019ACF8A
:102D7000CB010E94E8147C01009749F0AE01B80134
:102D80000E94CA16C8010E948415870153CF10E023
:102D900000E050CFFB01DC0102C001900D924150D8
:102DA0005040D8F70895FB01DC0101900D920020FE
:102DB000E1F7089510E0CCEED0E004C0FE010E94DF
:0E2DC000E2142196CD3ED107C9F7F894FFCF5B
:102DCE00EA0001444A49414952554E495400000017
:102DDE0000000000803F0120080000D004800000A9
:102DEE0000000028028801B5017502E601C401D871
:102DFE000100000000EF028801A102EA02B102D434
:102E0E0002C1020D0A00696E697420756172743A0E
:022E1E000000B2
:00000001FF
